:020000040002F8
:100000000040002099010200AB010200AD01020096
:1000100000000000000000000000000000000000E0
:10002000000000000000000000000000AF0102001E
:100030000000000000000000B1010200B301020056
:10004000B5010200B5010200B7690200B501020066
:10005000B5010200000000001D590200B5010200B8
:10006000B5010200B5010200B5010200B5010200B0
:10007000B5010200B5010200B5010200B5010200A0
:10008000B501020041640200B5010200B5010200A1
:1000900063640200B50102002B580200B5010200A2
:1000A000B5010200B50102000000000000000000E0
:1000B0000000000000000000000000000000000040
:1000C00000F002F800F02CF80CA030C80838241812
:1000D0002D18A246671EAB4654465D46AC4201D180
:1000E00000F01EF87E460F3E0FCCB6460126334286
:1000F00000D0FB1AA246AB4633431847C88B00001A
:10010000D88B000010B5642902D108F067F910BD42
:10011000002010BD1FB5C046C0461FBD10B510BDA4
:1001200008F0EBFB1146FFF7F5FF00F0B8F908F017
:1001300003FC03B4FFF7F2FF03BC08F007FC000068
:10014000401E00BF00BF00BF00BF00BF00BF00BF18
:1001500000BF00BF00BF00BF00BFF1D1704700006B
:1001600070B505460C46164602E00FCC0FC5103E92
:10017000102EFAD2082E02D303CC03C5083E042E5B
:1001800007D301CC01C5361F03E021782970641C18
:100190006D1C761EF9D270BD0A4802680F210A4311
:1001A00002600948804709480047FEE7FEE7FEE78E
:1001B000FEE7FEE7FEE7000005480649064A074B52
:1001C000704700002405004077020200C1000200D1
:1001D00000300020004000200038002000380020BF
:1001E0002E482F49086070472E48008CC0B2012865
:1001F00010D12C48808C0007000F0BD12948806A51
:10020000F0210840402805D12648C06A084201D1A3
:10021000012070470020FCE72248008CC0B2012872
:1002200027D12048808C0007000F22D11D48806A0A
:10023000F021084205D11B48C06A084201D10120C3
:1002400070471848806AF0210840102805D11548E9
:10025000C06A084201D10120F2E71248806AF02109
:100260000840302805D10F48C06A084201D101205A
:10027000E6E70020E4E710B5FFF7CEFF002805D041
:1002800009480A494860C81309498861FFF7ACFF6B
:10029000002802D001200749886010BD0024F40026
:1002A00000240020C00F00F0DFFF07C00005004061
:1002B000006C004000060040B94C2180B94B1A6028
:1002C000B94B186000BFBFF34F8FB84BB84CE36019
:1002D000BFF34F8F00BF00BFFEE705460C46B04896
:1002E0000580B048046022462946B248FFF7E4FF83
:1002F00038B500BF0020B04B0B220A2100901F2010
:1003000006F0B3F8044600BF2546002D05D000BF17
:10031000AAA293212846FFF7CFFF00BF00BF38BD38
:1003200070B500BFA849012005F05DFB044600BF81
:100330002546002D05D000BFA0A29A212846FFF730
:10034000BBFF00BF00BF70BD10B50446204600F0E3
:100350007EFF204600F058FC204607F0D6FF2046DE
:1003600004F0DEFC10BD10B50446052C06D10120BA
:10037000FFF7EAFF002000F06AFF02E00020FFF72D
:10038000E3FF10BD10B50446042C06D10120FFF791
:10039000DBFF002000F038FC02E00020FFF7D4FF74
:1003A00010BD10B50446042C06D10120FFF7CCFF88
:1003B000002007F0AAFF02E00020FFF7C5FF10BDF4
:1003C00010B50446042C06D10120FFF7BDFF002024
:1003D00004F0A6FC02E00020FFF7B6FF10BD70B5E8
:1003E00000BF0023502279490B2005F0CEF90546C5
:1003F00000BF2E46002E05D000BF70A2E42130467B
:10040000FFF75AFF00BF00BF714805F0F3F904463B
:1004100000BF2546002D05D000BF68A2E821284670
:10042000FFF74AFF00BF6B4805F0EDF9044600BF37
:100430002546002D05D000BF60A2EC212846FFF71D
:100440003BFF00BF70BDF8B5044601F082FC0746D3
:1004500008F096F8054601F07CFC06462A4631462F
:100460005D4808F0AFF8002C0CD001F072FC064695
:1004700008F086F858494518224658A1284607F042
:1004800071FF0AE001F065FC064608F079F8524970
:10049000451854A1284607F065FF4F48F8BD08B538
:1004A0000024FFF725FFFFF73BFF01F0EFFB01F012
:1004B00041FC0546FFF793FF2046FFF7C4FF0646C1
:1004C00001F0B4F801F03EFC064601F089F9464817
:1004D00001F02DF9454800F000FB454807F00FFFFB
:1004E000284601F05FFC284600F0EDF800F0C7FA5E
:1004F000012000F0E1FD01F025FC064600F0F8FEC9
:1005000001F03DF901F005FA01F039FA01F0E4FAE1
:1005100001F05BFBFF203ADF28463ADF012039DF9C
:10052000284603F089FC00BF684606F0D1FB00288E
:1005300003D16846007800F0A0F900F009F900F056
:10054000CFFA032807D300F06AFE032803D202F093
:10055000B0F8002804D1274800682749884213D101
:1005600002F0A7F804462046FFF76DFF064601F0AB
:10057000BFF800F0B5FD06F0B6FD06F07CFF07F011
:10058000D9FC1E481B4908601A4800681B4988426C
:10059000CAD218480068401C16490860C4E7000029
:1005A00008240020102400200C2400200400FA0558
:1005B00000ED00E0EFBEADDE002600207372635C4C
:1005C0006D61696E2E630000082B00201C2B00203B
:1005D000E9110200370B02006C2B0020202530357A
:1005E00064000000000000006703020085030200B1
:1005F000A303020004240020FEFF3F00FFFFFF00D2
:1006000070B504460D46164632462946204602F08D
:1006100017FE70BD70B504460D4616463246294693
:10062000204602F060FE70BD0146082902DAC24889
:10063000405C70470020FCE770B504460025A4200C
:1006400006F04DFB207806F04AFB607806F047FB89
:1006500060784E2802D060784F280AD1B7480068E9
:10066000002803D00120B649087002E0042000F001
:1006700059F9002505E0A11C485D06F030FB681C17
:10068000C5B22078A842F6DCA07B06F028FB00204B
:1006900070BD01460022A4200B7858404B7858408A
:1006A00000BF04E08B1C9B5C5840531CDAB20B78F3
:1006B0009342F7DC704710B50020A1490870042070
:1006C00000F035F910BD7FB5054600249D48057042
:1006D00000209D490870994908609C4801F0D3FAB0
:1006E000042001210522120707231B02D2188300D0
:1006F000D15000BF00F01BF995480068C007C00F3B
:1007000001D001200443924800680221084201D030
:10071000022004438E4800680421084201D02020B2
:1007200004430121684601706F2141708470FFF716
:10073000B0FFC1B268468173FFF77EFF002004B0AE
:1007400070BD10B57F480078FFF7BDFF002010BDD9
:100750001FB57A48006805285ED17E48FFF799FFEB
:100760007C49897B884254D100F059FD042803D08C
:1007700000F055FD05281ED101F0DCFA6E49085C39
:1007800074498978884203D1724800F00FFF12E063
:100790007048807800280ED101F0CCFA062803D0EA
:1007A00001F0C8FA042806D16A48C078BD2802D1F1
:1007B000684800F0FBFE00F093F9022826D001F013
:1007C00078FF00281FD101F0B5FA05281BD100F0F1
:1007D00087F9032817D14E2168464170594800789F
:1007E000FFF722FF014668468170AC21C1700121EC
:1007F000017109210170FFF74CFFC1B26846817396
:10080000FFF71AFF02E0534800F001FA514801F0E7
:1008100080FB002049490860002004B010BD7FB56E
:1008200004460D4616464021684641708670C470E5
:10083000057103210170FFF72CFFC1B26846817377
:10084000FFF7FAFE04B070BD10B5092041490870E9
:100850004E204870002405E000213E48801C0155D0
:10086000601CC4B2082CF7DB3A48FFF712FF394985
:100870008873084600F0CBF910BD10B504462F4828
:100880000068030008F086F805040A1A20414700B2
:10089000A42C02D101202949086040E02D480470B1
:1008A00000780C2803DD01202449086005E00220BF
:1008B0002249086000202449087030E0254844702F
:1008C00003201E4908602AE0224800781E49097862
:1008D000884209DD1F48801C1B49097844541A4886
:1008E0000078401C184908701A48007816490978A1
:1008F000884209DC0420114908601148007800286A
:1009000002D0042000F00EF809E01248847305209C
:100910000A49086003E000200849086000BF00BFE2
:10092000002010BD012181400B4A916070470121D8
:100930008140094AD1607047148B020018240020BE
:10094000152400201424002017240020B7060200DC
:10095000000400408C2B00200005005010B5044618
:10096000FE480068844200D110BDFC480460FC4889
:100970000068002804D0F9480068F94909688847E8
:1009800000BFF1E7F8B506460024F64800780028D5
:1009900010D1F248006802280FD0F3480088401CAC
:1009A000F149088008460088782806DD0320FFF713
:1009B000D5FF02E00020EC4908800020E9490870DA
:1009C000E6480068012853D0E448006802284FD068
:1009D000E648007800284BD101F0ACF9072847D150
:1009E000E3480088401CE249088008460088012846
:1009F00041DD69460020E7DF684600788107890FFE
:100A0000009168460078022803D0684600780328E1
:100A10002AD10020C5DF044600BF2546002D06D0A0
:100A200000BFD4A286212846FFF746FC00BF00BFC6
:100A300000BF69460020E7DF684600788107890F1C
:100A40000091684600780128F3D10020C3DF0446F6
:100A500000BF2546002D06D000BFC6A28E21284625
:100A6000FFF72AFC00BF00BF0120FFF777FF02E07D
:100A70000020BF4908800020BC490870F8BD70B54F
:100A8000C14A0121C14805F06FFD044600BF25465B
:100A9000002D06D000BFB7A243212846FFF70CFC6B
:100AA00000BF00BF002201218902B848006805F09C
:100AB000A2FD044600BF2546002D06D000BFADA212
:100AC00045212846FFF7F8FB00BF00BF0020B049D2
:100AD000087088808871C87170BDA149086070472E
:100AE0009E480068704770471FB50446E0784E285E
:100AF00004D04F2803D050281AD101E000BF00BF16
:100B00000B22A11C684607F05DFD6846FFF7C1FD9A
:100B1000694688739F480078002802D16846FFF72D
:100B20008BFD01208F4908700420FFF717FF00E0BC
:100B300000BF00BF1FBD10B504462078030007F0BA
:100B400029FF0604050637333B3F00BF00BF60782E
:100B500006281CD006DC030007F01CFF0623141532
:100B600016171823092815D004DC072810D00828E8
:100B700017D10EE00A280ED0802812D12046FFF7A8
:100B8000B3FF0FE000BF00BF00BF00BF00BF00BF4A
:100B900000BF00BF00BF227861780120FFF73FFE51
:100BA00000E000BF00BF0BE0204606F0EBFA07E0D4
:100BB000204606F0AEFC03E0204607F05AFB00BFDB
:100BC00000BF10BD7CB574A103C90191009000F075
:100BD00026FBC1B268468170FFF782FFC1B268464A
:100BE000C1706A4608210020C7DF044600BF2546C1
:100BF000002D07D000BF5FA2FF214B312846FFF731
:100C00005BFB00BF00BF7CBD624908707047FEB54A
:100C100006460025012055490870B41C2078019033
:100C20000198022801DD0020FEBD207802A9E7DF3F
:100C30006846007A8107890F029101F07BF8072846
:100C40001DD101F036FD52498988884217D001F044
:100C500030FD4F4988800F46FB79BA79B9883878DA
:100C6000D3DF054600BF2F46002F07D000BF41A2AB
:100C7000FF217B313846FFF71FFB00BF00BF304626
:100C8000FFF707FDB17B884266D170784E280DD002
:100C900070784F280AD07078502807D070784A288A
:100CA00004D0227870780021FFF7B9FD70784038C1
:100CB000030007F06FFE15FE0C21C9DFFFFCFBFAF5
:100CC000F9F8F7F6F9F5F4F3A3F9F2F1F90068464B
:100CD000007A01280FD12078C3DF054600BF2F46D8
:100CE000002F07D000BF23A2FF218F313846FFF726
:100CF000E3FA00BF00BFD3E16846007A022803D0C0
:100D00006846007A032851D12078C5DF054600BF28
:100D10002F46002F07D000BF16A2FF21963138467C
:100D2000FFF7CAFA00BF00BF00BF207802A9E7DFC3
:100D30006846007A8107890F02916846007A012887
:100D4000F3D12078C3DF054600BF2F46002F2CD0FB
:100D500000BF08A2FF2123E0A3E100002824002017
:100D6000242400201E2400202C2400201F240020E6
:100D70002E2400207372635C414E5468616E646C73
:100D800065722E63000000008509020030240020F7
:100D90009C2B002020240020EF0100000000000018
:100DA0009F313846FFF788FA00BF13E06846007AA3
:100DB00001280FD12078C3DF054600BF2F46002F42
:100DC00007D000BFB84AFF21A4313846FFF774FAB4
:100DD00000BF00BFA278617820780023C2DF0546FB
:100DE00000BF2F46002F07D000BFAF4AFF21A73119
:100DF0003846FFF761FA00BF00BF51E16078A7787D
:100E00003F02C01981B22379E27820780090D3DFC5
:100E100005462078A54908706078A1780902401835
:100E2000A2498880E07888712079C87100BF2F4678
:100E3000002F07D000BF9C4AFF21B0313846FFF792
:100E40003BFA00BF00BF2BE16278A3781B02D218E7
:100E500091B22078D1DF054600BF2F46002F07D082
:100E600000BF914AFF21B5313846FFF725FA00BF90
:100E700000BF15E161782078D6DF054600BF2F4618
:100E8000002F07D000BF884AFF21BA313846FFF74C
:100E900013FA00BF00BF03E1F0E055E0D7E0B8E08F
:100EA00099E07EE065E05FE0F9E03AE026E013E0FB
:100EB00000E08FE061782078CDDF054600BF2F4647
:100EC000002F07D000BF784AFF21BF313846FFF717
:100ED000F3F900BF00BFE3E02078611CCCDF0546DA
:100EE00000BF2F46002F07D000BF6F4AFF21C4313B
:100EF0003846FFF7E1F900BF00BFD1E020780022BB
:100F00000421CFDF054600BF2F46002F07D000BFCA
:100F1000654AFF21C9313846FFF7CEF900BF00BF4F
:100F2000BEE06178A0780022EADF054600BF2F46C8
:100F3000002F07D000BF5C4AFF21CE313846FFF7B3
:100F4000BBF900BF00BFABE0E9DF054600BF2F469D
:100F5000002F07D000BF544AFF21D3313846FFF796
:100F6000ABF900BF00BF9BE0C0DF0546FFF7E9FB20
:100F700096E02078C4DF054600BF2F46002F07D03B
:100F800000BF494AFF21DE313846FFF795F900BF1F
:100F900000BFFFF7A5FD042802D00320FFF7DEFC09
:100FA0007EE06846007A032803D06846007A02286B
:100FB0000FD12078C5DF054600BF2F46002F07D090
:100FC00000BF394AFF21EA313846FFF775F900BF03
:100FD00000BF65E064E06846007A032818D1344811
:100FE0000078012802D1FFF7EDFD11E02078621CA6
:100FF0000821C7DF054600BF2F46002F07D000BFDE
:10100000294AFF21FD313846FFF756F900BF00BFDE
:1010100046E06846007A032818D125480078012860
:1010200002D1FFF7CFFD11E02078621C0821C8DF54
:10103000054600BF2F46002F07D000BF1A4A832164
:1010400089003846FFF738F900BF00BF28E068463E
:10105000007A032811D120780023621C0821C9DFFF
:10106000054600BF2F46002F06D000BF0E4A11498B
:101070003846FFF721F900BF00BF11E02046ECDF42
:10108000054600BF2F46002F07D000BF064A09497A
:10109000891D3846FFF710F900BF00BF00E000BF10
:1010A00000BF0020C0E50000740D02009C2B002052
:1010B000202400201502000010B50446FE480068F8
:1010C000844200D110BDFC480460FC480068002840
:1010D00004D0F9480068F9490968884700BFF1E77A
:1010E00070B5F74873DF044600BF2546002D07D0D2
:1010F00000BFF4A2FF21AC312846FFF7DDF800BFA6
:1011000000BF0320FFF7D8FF70BDF8B504460025E7
:10111000208814283DD006DC10280BD0112810D0D0
:10112000132851D114E017282DD0192845D0522862
:101130004AD121E0A088E84908800420FFF7BCFFDD
:1011400043E00020C043E4490880FFF7C9FF3CE0CA
:10115000E24A0021E04800887FDF054600BF2F46B5
:10116000002F07D000BFD7A2FF21DE313846FFF79E
:10117000A3F800BF00BF28E000221146D64800882F
:10118000A9DF054621E03222A11DD54807F01AFA51
:101190001BE0D34EB61D3188E089814206D1002282
:1011A0003146CD48008881DF054605E00022114622
:1011B000C948008881DF054607E0A079002802D1F0
:1011C0000320FFF779FF00E000BF00BF002D0AD029
:1011D00000BF002700BFBBA2812189000020FFF7CC
:1011E0006BF800BF00BFF8BD10B50446204601F003
:1011F000A6FF2146BB4802F0C6F82146BA4801F0D6
:10120000E6FA2146B94802F03DFE204603F0F4FC20
:10121000204604F0DAF92046FFF777FF10BDA64814
:10122000006870471CB5B2A103C901910090FFF797
:10123000F6FFC1B268468170FFF752FCC1B2684642
:10124000C17008226946AC4805F052FE1CBDAB498E
:101250000870704730B5A3B006210491A84A07CAA8
:1012600001AB07C3A748018868468180A64800787B
:10127000002804D0A54968468180032181713C2162
:1012800014A807F0FEF902201490002110A841755F
:101290000121018304A917913C2105A807F0F1F968
:1012A00003216846018601A90D9105A914A804F03F
:1012B00019F8044600BF2546002D06D000BF81A2C4
:1012C000B2212846FEF7F8FF00BF00BF23B030BDB3
:1012D00010B504468C480078002803D000208A49C5
:1012E000087002E0012088490870FFF7B3FF10BDC5
:1012F00070B50546834805800120FFF7DDFE142107
:101300006F4807F0BEF900206D4908704860087208
:10131000FF209130088200204882FFF79BFF7C4A23
:1013200001217C4805F020F9044600BF2646002E26
:1013300006D000BF63A287213046FEF7BDFF00BF85
:1013400000BF00220121C9027248006805F053F96C
:10135000044600BF2646002E06D000BF59A28921B0
:101360003046FEF7A9FF00BF00BF70BDF7B586B0DD
:101370000D46002001900920694608725F480078F8
:10138000002801D009B0F0BD0520FFF795FE6249A5
:101390000698401802D020287ED11BE02878BC286F
:1013A0000DD100F0C7FC062803D000F0C3FC0428D0
:1013B00005D14F21684641720021817209E04E201B
:1013C0006946487200F0B6FC0090FFF72DF96946B7
:1013D0008872CAE050206946487200F0ABFC0628CB
:1013E00003D000F0A7FC042864D12F78E0210F403F
:1013F000002F06D100204949087049490870494921
:10140000087000240BE0601C295C444802780078D6
:10141000401C424B187044488154601CC4B2082CD4
:10142000F1DB192F47DD00243CE03D48007800281F
:1014300002D16946887212E039480078202803D129
:10144000C020694688720AE035490978481E0321A0
:1014500007F023F9491C4807000E69468872304896
:101460000078401C2E49087000260DE02D480178B8
:101470000078401C2B4A10702B48425C02A80230B6
:10148000711C4254701CC6B2082EEFDB02A8FFF795
:1014900000F96946887500E066E002A8FFF7CCF81D
:1014A000601CC4B2052C43DA1D4800781B4909783A
:1014B00088423BE03DE03BE03C2400203824002013
:1014C000C42D00207372635C424C4568616E646C8D
:1014D00065722E6300000000342400205424002094
:1014E000B02C0020E42C0020482D0020AC2D002042
:1014F000EF0200000000000002AB000041240020C9
:101500001C8B02005A24002042240020C1FE00004F
:10151000D112020050240020FF54FFFF4524002078
:101520004324002044240020A82B002000DA7CE77C
:1015300028E700F0FFFB072803D128786946887266
:101540000FE000F0F7FB0090FFF76EF80107090FBE
:1015500068468172807A2978F022114008436946F2
:1015600088720120019000E00CE700BF002411E028
:101570000898844207DA019820182A5C02A80230F1
:10158000611C425404E0002202A80230611C425453
:10159000601CC4B2082CEBDB02A8FFF77AF869469E
:1015A000887502A8FFF748F800BFEBE610B50446BF
:1015B000FE480078002803D0FFF734FE002010BD5D
:1015C0002046FFF766F8A17B88422DD1607842382B
:1015D000030007F0DFF9101D27201F272127271CF4
:1015E00016272709270F1E270822E11CF04805F0BF
:1015F0007FFC18E00822E11CED48203005F078FC63
:1016000011E0607800221146FFF709F90BE00AE0CB
:1016100000BF00BF00BF00BF607800221146FFF787
:10162000FEF800E000BF00BF0020C8E7FEB5054699
:1016300000BF6846007801090901009168460078FA
:10164000F0218843009000BF284606F099FF86B23B
:101650003246294668467CDF044600BF2646002EF7
:1016600007D000BFD34AFF217B313046FEF724FE6E
:1016700000BF00BF002078DF044600BF2646002ED2
:1016800007D000BFCB4AFF217F313046FEF714FE62
:1016900000BF00BF00200190029028216846818091
:1016A0007D21C18000210181FF219131418101A86B
:1016B0007ADF044600BF2646002E07D000BFBD4A91
:1016C000FF2189313046FEF7F7FD00BF00BF04203F
:1016D00077DF044600BF2646002E07D000BFB54A7C
:1016E000FF218C313046FEF7E7FD00BF00BFFEBD95
:1016F00070B504462046FFF799FF00F023FB05462E
:10170000FFF7F6FD70BD70B574DF044600BF2546D7
:10171000002D07D000BFA74AFF21B6312846FEF7AB
:10172000CBFD00BF00BF0220FFF7C6FC70BDA24981
:101730000860704710B5044600BF9E4A9F49204686
:10174000FEF7BAFD00BF10BD70B505462868002839
:1017500012D13B219A48008876DF044600BF264616
:10176000002E07D000BF934A944916313046FEF749
:10177000A3FD00BF00BF00E000BF00BF70BD30B5DB
:1017800087B01C21684606F07CFF002000908B4843
:101790005A300190A02002900A216846017300216E
:1017A000C18101748748059087480690684603F018
:1017B00038FE044600BF2546002D07D000BF7D4AF5
:1017C0007E490A392846FEF777FD00BF00BF07B003
:1017D00030BD0A68012A00D100E000BF00BF704799
:1017E00070B596B00546402106A806F04AFF77A1DD
:1017F0000EA801F037FB00BF10A8007D0109090108
:10180000491C10A80175007DF0218843103010A9F3
:10181000087500BF00BF15A840780009000115A990
:10182000487015A84078F021884315A9487000BF7A
:1018300006A802F00FFA044600BF2646002E07D085
:1018400000BF5C4A5D493E313046FEF735FD00BFC2
:1018500000BF01F025FB5F48458001F03EFC1421EC
:1018600001A806F00EFF00BF6846407C010909018F
:10187000491C68464174407CF02188431030694619
:10188000487400BF00BF01A8807B00090001401C14
:1018900001A9887301A8807BF0218843103001A939
:1018A000887300BF00BF01A8C07B00090001401C75
:1018B000C87301A8C07BF0218843103001A9C87308
:1018C00000BF00BF6846007D01090901491C684648
:1018D0000175007DF021884310306946087500BF0E
:1018E0003D48019000200872039001A93B4802F096
:1018F000ACFB044600BF2646002E07D000BF2D4A91
:101900002E495A313046FEF7D7FC00BF00BF16B053
:1019100070BD1E203249088008468078400840008B
:10192000401C887008468078022188432C498870C2
:10193000084680781C2188430C3029498870084665
:10194000807820218843264988700720C87010209D
:101950000871704770B505460C462068012809D10A
:1019600020496068884201D1032070BD606802F0A0
:101970003BF801E00220F8E700BF0120F5E730B5B1
:101980008BB0282101A806F07CFE002001900320E6
:101990006946088200BF6846007A01090901491CAE
:1019A00068460172007AF02188431DE0412400203E
:1019B00002AB0000C41402003824002025020000FD
:1019C000342400204917020035170200332E312E2F
:1019D00031300000D82D0020D3170200AC2D00209C
:1019E00054240020FFFF000010306946087200BF39
:1019F00000BF6846807B01090901491C6846817364
:101A0000807BF021884310306946887300BF00BF97
:101A100001A8407A00090001401C01A9487201A8F0
:101A2000407AF0218843103001A9487200BF00BFFE
:101A30006846C07A01090901491C6846C172C07A2A
:101A4000F021884310306946C87200BF0221684601
:101A500081746948059069480690012168460177BC
:101A60000C2000906846099000BF0AA84078000941
:101A70000001401C0AA948700AA84078F021884358
:101A800010300AA9487000BF01A95D4801F02EFF7F
:101A9000044600BF2546002D06D000BF594A5A49CA
:101AA0002846FEF709FC00BF00BF0BB030BD70B583
:101AB00005460C462068012809D1544960688842CF
:101AC00001D1032070BD606801F08CF901E00220B3
:101AD000F8E700BF0120F5E730B58DB02C2102A852
:101AE00006F0CFFD002002900C20059000BF684654
:101AF000007B01090901491C68460173007BF02144
:101B0000884310306946087300BF00BF6846807C78
:101B100001090901491C68468174807CF0218843D1
:101B200010306946887400BF00BF02A8407A0009DF
:101B30000001401C02A9487202A8407AF0218843A3
:101B4000103002A9487200BF00BF6846C07B01097F
:101B50000901491C6846C173C07BF02188431030DD
:101B60006946C87300BF022168460176284807907D
:101B700028480890012108A801710C20019001A8B3
:101B80000B9000BF0CA8407800090001401C0CA974
:101B900048700CA84078F021884310300CA9487098
:101BA00000BF02A91C4801F09FF8044600BF25466B
:101BB000002D07D000BF134AC12189002846FEF737
:101BC0007BFB00BF00BF0DB030BD38B500200090DA
:101BD00012480090684603F036F8044600BF2546D8
:101BE000002D07D000BF074A07494C312846FEF7B1
:101BF00063FB00BF00BF38BD551902004824002018
:101C0000E42C0020C4140200C9020000FFFF000001
:101C1000AF1A02004C240020482D0020E1480200A9
:101C20001CB504462068002806D001280FD00228E1
:101C30000ED0032824D11BE003E068460079FEF7AC
:101C40001CFE01A805F044F80028F6D019E000BFFA
:101C500023492068086008466168416000682048A0
:101C60004068009005F047F800201E49086008E031
:101C70001D480068002802D01B480068804700E02B
:101C800000BF00BF1CBD18490860704730B58BB05D
:101C9000164B0FCB07AC0FC400BF002006901448B2
:101CA000029080200390134804908020059006A89D
:101CB0000323114A02A9009007A804F0F2FE04468B
:101CC00000BF00BF2546002D06D000BF0BA25A2141
:101CD0002846FEF7F1FA00BF00BF0BB030BD000090
:101CE00060240020802400405C240020288B020017
:101CF000322E0020B22E0020211C02007372635C81
:101D00005541525468616E646C65722E6300000028
:101D100010B50321082000F023F80321092000F06A
:101D20001FF803210A2000F01BF803210B2000F00C
:101D300017F810BD10B5FFF7EBFF0E48006940051E
:101D4000400F10BD10B5FFF7F5FF40000A49085AD3
:101D500010BD10B5FFF7EEFF80000849085810BD10
:101D600010B58A0005231B07072424021B198400D1
:101D70001A5110BD00050050588B0200388B02002C
:101D8000FB490978052907DD0021FA4A1170FA4A52
:101D90001180FA4A118004E0F5490978491CF44A97
:101DA00011707047F8B50546F54A0121684604F000
:101DB000DBFB044600BF2646002E06D000BFF1A282
:101DC00086213046FEF778FA00BF00BF00220121CD
:101DD0004902009804F00FFC044600BF2646002E7E
:101DE00006D000BFE7A28A213046FEF765FA00BFA1
:101DF00000BFEA480570F8BD1FB54E20694648701F
:101E0000E6480078FEF710FC69468870E3480078E1
:101E10004007400F052812D10421684601704E2169
:101E20004170DC21C1700421017102214171FEF772
:101E300030FCC1B268468173FEF7FEFB00E000BFD4
:101E400000BF6846FEF725FC694688736846FEF7C2
:101E5000F3FB1FBD1FB50220D14908600020D14906
:101E600008704E2069464870CC480078FEF7DCFBCD
:101E700069468870C94800784007400F042806D09A
:101E8000052820D0062803D0072837D12AE000BF34
:101E900009206946087010216846C170C248008850
:101EA000011268460171C048017868464171AA2153
:101EB0008171FF21C1710021017241728172022082
:101EC000B74908601BE00421684601704E2141704B
:101ED000DC21C17004210171012141710220B0494E
:101EE00008600CE003206946087023216846C17031
:101EF000632101710320AA49086000E000BF00BF10
:101F00006846FEF7C6FB694688736846FEF794FB91
:101F10001FBD10B50446A14800784007400F0428B3
:101F200006D005287ED0062803D0072879D1F9E00D
:101F300000BFE078002804D0012841D003286DD1EB
:101F40005EE097480068022801D1FFF783FF2079FF
:101F500080210840C0099549087020794021084235
:101F60000ED09048007808420AD1207920210842FA
:101F700003D101208A49086002E0002088490860F6
:101F80002079602108408749087020794007400D7A
:101F90006179084379490880A0798007800DE1794B
:101FA000084375490880207A0002617A0843804915
:101FB0000860A07A6F49087000206D4908702DE014
:101FC000A0790004E17909020843217A084379499C
:101FD0000860794800880968884207D077497548C1
:101FE000006806F050FB88B273490880607A0102ED
:101FF000A07A08187249088000205D4908700DE039
:10200000207A40B26F490880607A0002A17A0843C2
:102010006549088000205649087000BF00BF39E1BB
:1020200000E036E15E480068022801D1FFF7E4FED7
:10203000E078AD2855D0DD2872D12079012812D161
:10204000E0790002217A08434C4908806079000257
:10205000A179084348490880607A46490870002001
:10206000434908703CE0207902280FD160790006CE
:10207000A17909040843E17909020843217A084358
:102080004B49086000203A49087029E0207903286C
:1020900006D1E0794C4908700020354908701FE0EE
:1020A000207904281CD1A0790102E079081845495B
:1020B00008806079802803DD00203949086009E044
:1020C0006079032806D137480078032802DA012016
:1020D000334908606079334908700020244908704A
:1020E0001EE0207901281AD1E0790006217A09043E
:1020F0000843617A09020843A17A08432D49086020
:102100002D4800880968884206D03049294800686F
:1021100006F0B9FA2848018000201549087000BF70
:1021200000BFB7E0E078082852D004DC012807D0CF
:1021300002280ED10EE016285AD0222809D164E0D8
:10214000A0790102E07908180C49088000200849AC
:1021500008707BE020790102607908180649088040
:10216000A079044908700020014908706EE0000061
:102170007A2400206A240020682400206C24002097
:10218000811D02007372635C4272616B654461740D
:10219000614465636F64652E630000008D24002038
:1021A000882400208C2400207E240020822400200B
:1021B000742400207024002078240020A0860100D0
:1021C000802400207C2400207B2400201027000095
:1021D00020790006617909040843A17909020843BE
:1021E000E1790843FE4908600020FE4908702DE0AF
:1021F000E079FD4908702079010260790818FB49EF
:1022000008800020F749087020E0F948006803289A
:1022100005D12079062802D10220F5490860E0792D
:102220000102207A0818F3490880A0790D2803D10B
:102230000020EF49086005E0A0790A2802DB0120B0
:10224000EB4908600020E749087000BF00BFE07854
:10225000AD281DD1207901281AD1E0790006217A14
:1022600009040843617A09020843A17A0843E24954
:102270000860E24800880968884206D0E049DE48E4
:10228000006806F000FADD4801800020D54908709A
:1022900000E000BF00BF10BDDA4800887047DA4890
:1022A00000784007000FD949085A7047D148008884
:1022B0007047F0B585B00446D3480078FEF7B4F90E
:1022C00069468871D04800784007400F042806D03E
:1022D00005282BD0062803D0072866D141E000BF8F
:1022E0000921684601714E214171102101A8C17078
:1022F000C7480088011201A80171C548017801A8EA
:102300004171AA2181717E21C171FFF7CFFFC1B256
:1023100001A80172211241728472FEF7BAF9C1B2AA
:102320006846817401A8FEF787F93FE009216846F5
:1023300001714E214171DC2101A8C170012101719F
:10234000417121128171C471002101724172817247
:10235000FEF79FF9C1B26846817401A8FEF76CF9D7
:1023600024E0FFF799FF642800DA0024FFF794FFC8
:102370000246FFF794FF42431646FFF78DFF0246E1
:10238000FFF78DFF4243D00F8018411020462422D2
:102390005043C82250430F183146384606F073F9AF
:1023A00080B2009000F0E1F800E000BF00BF05B08F
:1023B000F0BDFFB589B006461C4600252146139A9C
:1023C000514308463230642106F067F9C4B28E48A2
:1023D00000784007400F042806D0052856D006286C
:1023E00003D007287ED101E000BF00BF3146894AF3
:1023F00051430A9A5143884A8818510006F04DF912
:102400000546FFF749FF01460A220B98504308187A
:10241000642148432421039006F03FF907B2002FBE
:1024200009DA394679436143754A8818510006F044
:1024300034F92D1A08E0394679436143704A881807
:10244000510006F02AF945193146724A5143129A51
:1024500051436B4A8818510006F01FF94519002DA9
:1024600000DA0025FFF71BFF0190FFF718FFC10FEF
:10247000039008184010690040180090019906F078
:102480000CF980B2029000F070F86BE07D22D2006F
:102490000B9951430846242106F0FFF800B208903A
:1024A0000921684601744E21417457480078FEF7AF
:1024B000BBF8014668468174DC2104A8C170022182
:1024C00001710A206043411204A841710A2060434F
:1024D000C005010E04A8817108980004010E04A82B
:1024E000C17100E03DE00898C1B204A8017200216A
:1024F00041728172FEF7CDF8C1B26846817704A8B7
:10250000FEF79AF80921684601744E2141743E484D
:102510000078FEF789F8014668468174DC2104A83A
:10252000C17001210171002141710A210A9806F050
:10253000B4F80004010E04A881710A210A9806F07B
:10254000ACF8C1B204A8C171067200214172817257
:10255000FEF79FF8C1B26846817704A8FEF76CF8D1
:1025600000E000BF00BF0DB0F0BD70B586B00446FE
:10257000C82C00DDC824FFF792FE604305460A35EB
:102580001421284606F07FF8244908801E48007868
:102590004007400F04281AD0052804D0062817D079
:1025A00007286CD14AE0FFF77AFE7D21C900484335
:1025B00006461B4906F071F8C5B20020009003469C
:1025C000024621B201902846FFF7F3FE00BF00BF8C
:1025D000FFF765FE01466143FFF75EFE414321E0E0
:1025E000742400207A2400207B24002080240020F2
:1025F000882400207C2400207024002078240020DF
:1026000010270000682400208D240020708B020019
:102610007E240020D50300008813000084240020BD
:10262000AC0700000E466436E1214901304606F051
:1026300034F885B22846FFF73CFE22E004216846C4
:1026400001724E21417231480078FDF7EDFF0146DD
:1026500068468172012102A8C1702D4800880112CC
:1026600002A801712A48017802A84171FEF711F809
:10267000C1B26846817502A8FDF7DEFF01E006B031
:1026800070BD00BF00BFFAE72248006870472149CB
:1026900008607047204800787047204800880A2862
:1026A00002DD1F48008870470020FCE71D480078C5
:1026B00070471D4800887047144800784007400F55
:1026C0001A49085C0A2148437047104800784007BF
:1026D000000F1749085A7047164800687047164897
:1026E00000887047094800784007000F1349085ACE
:1026F000114909880840704711480078704703481D
:1027000000784007400F0F49085C70478D24002077
:1027100084240020742400206A24002068240020DF
:102720006C2400207B24002078240020808B020071
:10273000888B02008824002080240020988B0200CF
:1027400082240020A88B020002460A70FF200002AB
:102750001040000A4870FF2000041040000C8870F0
:10276000100EC870042070478A88C2837047002208
:10277000D243C283704738B505460C46208B0228E9
:1027800017D12868002814D000BF00BFA17EE27EC8
:10279000120211430846C107C90F002902D00020C8
:1027A000009001E001200090694628462A68904781
:1027B00000BF38BD70B504460D46AE1D3188608936
:1027C000814203D131462046FFF7D5FF70BD70B579
:1027D00005460C4621462846243002F03DF8208864
:1027E000102804D0112807D050280FD109E0214625
:1027F0002846FFF7B9FF0AE021462846FFF7B7FF52
:1028000005E021462846FFF7D5FF00E000BF00BFE6
:1028100070BDF8B50E4615463027002429193846F4
:1028200000F0E3FA0019C4B2FFF737FF291900904E
:1028300000F0DBFA0019C4B229197068FFF784FFB1
:102840000019C4B22919308900F0CFFA0019C4B2B6
:102850002919708900F0C9FA0019C4B22919B08980
:1028600000F0C3FA0019C4B22046F8BD30B599B0E3
:1028700004460D460020119000BF10A80079010900
:102880000901491C10A801710079F021884310301A
:1028900010A9087100BF297910A84171807906211B
:1028A0008843811C10A881711C2112A805F0E9FE43
:1028B00010A8007A10218843103010A90872002057
:1028C00013901590169011A817900020189000BF33
:1028D000012108A88173F9496846818500BF00205D
:1028E0000A9000BF08A8007A0109090108A801722E
:1028F000007AF021884308A9087200BF00BF08A829
:10290000407A0109090108A84172407AF021884300
:1029100008A9487200BF08A8807A06218843811C54
:1029200008A88172807A08218843014608A881722C
:10293000807A10218843014608A88172807A410874
:102940004900491C08A8817214210CA805F099FEC1
:102950000BA80C900AA80D9001AA06A92046FFF723
:1029600058FF01466846018700214187142181876D
:1029700001A81090A088A31D0CAA12A9A2DF19B06B
:1029800030BD70B590B004460D461C2109A805F075
:1029900078FE08A9087902218843801C08A90871DB
:1029A00000200A900C900D900E900F9000BF012116
:1029B00068468173C149891C818100BF0020029053
:1029C000A87A6946087200BF6846407A0109090181
:1029D00068464172407AF02188436946487200BFD8
:1029E0006846807A06218843811C68468172807A15
:1029F00008218843014668468172807A1021884305
:102A0000014668468172807A4108490068468172B1
:102A1000142104A805F035FE01A9E868FFF794FE2B
:102A2000064603A8049002A8059068460683002184
:102A30004183868301A80890A08823460E3304AA08
:102A400009A9A2DF10B070BD70B590B005460C4664
:102A50001C2109A805F015FE08A908790221884360
:102A6000801C08A9087100200A900C900D900E900F
:102A70000F9000BF0121684681739049891F8181B1
:102A800000BF002002902920005D6946087200BF47
:102A90006846407A0109090168464172407AF0218E
:102AA00088436946487200BF6846807A0621884399
:102AB000811C68468172807A0821884301466846F5
:102AC0008172807A10218843014668468172807A3B
:102AD0004008400069468872142104A805F0D1FD21
:102AE0000126606A002802D0606A0078019003A87D
:102AF000049002A8059068460683002141838683DE
:102B000001A80890A8882B46163304AA09A9A2DFB9
:102B100010B070BDF0B58BB004460F46E08B68492D
:102B2000884222D006AA39462046FFF772FE0646A2
:102B3000059600200190029003900490E188684679
:102B40008180012181710021018105A8039006A8DF
:102B50000490E08B01A9A6DF0546002D04D168464C
:102B6000808AB04200D00C2500E0082528460BB032
:102B7000F0BDFEB50446FFF78FFB0190FFF784FD23
:102B800087B20120800202904E480088B8420EDDD4
:102B90004C4800880021C943081A401CC019642110
:102BA00048434949098840184749088009E0454891
:102BB0000088381A6421484343490988401842492B
:102BC000088040480780D5213F48008805F065FD12
:102BD000C5B2D52068433C490988081A3A4908809B
:102BE0003A48006840193949086039482A46424342
:102BF00032230198584310180090642201985043E2
:102C00000146009805F03FFD3249098840183149D6
:102C10000880002D02DD0120207001E000202070DE
:102C20002C4800882081294800686060012060707D
:102C3000FFF730FD062106464E437D21C900714352
:102C400008467D21C90005F028FD23490988401860
:102C500021490880FF2169311F48008805F01DFDCA
:102C60001E49098840181D490880FF2169311A480A
:102C7000008805F012FD88B21749088017480088BF
:102C800060810988711A029A51430846314605F05D
:102C900004FD134909884018A08111480188029851
:102CA00008180F490880FEBD1FB504466846FFF7A7
:102CB00060FF69460B48FFF72DFF1FBD632A000028
:102CC000FFFF00009C2400209E2400209024002070
:102CD00000D07700942400209A240020962400201D
:102CE00098240020482D0020F0B589B006460C46F7
:102CF000206830600020C043F083E068306200BF8D
:102D0000012108A881703D496846018400BF321D39
:102D100008A90120A0DF0546002D02D0284609B0F1
:102D2000F0BD21463046FFF7A1FD0546002D01D03C
:102D30002846F4E721463046FFF723FE0546002DDE
:102D400001D02846EBE7606A002808D021463046CB
:102D5000FFF77AFE0546002D01D02846DFE7206AFE
:102D60000790217F68460176217CC17260690490DA
:102D7000A06905900322E11D02A805F023FCF18A59
:102D800068464183B188818102A93046243001F030
:102D900089FB1B4A012101A803F0E6FB054600BFA1
:102DA0002F46002F07D000BF16A2FF21A2313846C0
:102DB000FDF782FA00BF00BF0022012189020198BD
:102DC00003F019FC054600BF2F46002F07D000BFB7
:102DD0000CA2FF21A6313846FDF76EFA00BF00BFF6
:102DE00000209CE70F490860704702460A70FF20E8
:102DF00000021040001248700220704718180000AE
:102E0000A92C02006C69625F626C655C626C655F34
:102E100073657276696365735C626C655F63702E5F
:102E20006300000090240020F8B505460E460024FB
:102E300032782146641C6A5472782146641C6A54B4
:102E400000BF022C01D1012000E000200746002F26
:102E500005D100BF08A22021FDF72EFA00BF00BF58
:102E60002046F8BD70B504460D46284605F088FB9F
:102E70002080656070BD00006C69625F626C655C9B
:102E8000626C655F73657276696365735C626C65BD
:102E90005F7372765F636F6D6D6F6E2E63000000FF
:102EA0007FB5FE4B0FCB6C460FC4002505E000201C
:102EB000A900FB4A5050681CC5B2012DF7DBF94947
:102EC000684662DF040003D0604200B204B070BD07
:102ED0000020FBE7F0B593B00546002600200190E6
:102EE000F3E0019803F098FF0446608969888842FE
:102EF0007ED1082E7CDA00200B9000BF08A8007B52
:102F000001090901491C08A80173007BF0218843CD
:102F1000103008A9087300BF00BF08A8407B010952
:102F20000901491C08A84173407BF02188431030F7
:102F300008A9487300BF08A8807B06218843811C2C
:102F400008A88173002002900390217B684641729B
:102F5000A1790172E18941811C210CA805F091FB46
:102F600022890821042003F0BAFF40000221084012
:102F7000009008A8007C88430099014308A80174C8
:102F800022890821022003F0AAFFC000082108407E
:102F9000009008A8007C88430099014308A80174A8
:102FA00022890821012003F09AFF00011021084026
:102FB000009008A8007C88430099014308A8017488
:102FC00020680D90206805F0DBFA81B26846018721
:102FD000206805F0D5FA81B26846418700200F903D
:102FE00010900BA8119000201290049000BF00E0F8
:102FF00067E06846007C01090901491C68460174C4
:10300000007CF021884310306946087400BF00BF7F
:103010006846407C01090901491C68464174407CAE
:10302000F021884310306946487400BF6846807CB0
:1030300006218843811C68468174807C082188436E
:10304000014668468174807C1021884301466846A9
:103050008174807C41084900491C684681741421B0
:1030600006A805F00EFB297868468175A188818243
:1030700005A8069004A80790A08803F000FF81B27D
:1030800068460184002141841421818400200A9033
:103090000A20704329460A314318A88806AA0CA9B9
:1030A0000090A2DF070003D0784200B213B0F0BD59
:1030B000A1880A2070432A460A3280180181701CB8
:1030C000C6B20198401C80B2019003F0A1FE0199A4
:1030D000884200DD05E70020E8E7F8B504467248BD
:1030E0000078012823DA7048007880006C490C5081
:1030F0006D480078401C6C4908700020C043E08097
:103100006848007820702178684681706188018065
:10311000221D69460120A0DF050001D028B2F8BDBC
:103120002046FFF7D7FE061E04DA3046F7E70120F7
:10313000C043F4E70020C043F1E700207047FEB52C
:1031400005460024A81D01900020009000BF3FE02C
:103150002888102804D0112808D0502834D10CE039
:10316000A888A1004E4A5158C8802EE00020C043D4
:10317000A1004B4A5158C88027E0002721E0A00059
:10318000474908580A300A217943415A0198008872
:10319000814214D1A000424908580A300A217943DB
:1031A000401800890090009803F05AFE0646002E51
:1031B00005D00198027E01461A310098B047781C6C
:1031C00087B2082FDBDB00E000BF00BF601CC4B289
:1031D000354800788442BBDB0020FEBD70B5034655
:1031E0000C461546002124E088002D4E305800285A
:1031F0001DD0002219E08800294E30580A300A26D6
:1032000056438019008998420DD18800244E3058C9
:103210000A300A265643801920608800204E305814
:103220002860012070BD501C82B2082AE3DB481CD4
:10323000C1B21D4800788142D6DB0020C043F1E7CF
:10324000F0B589B007460C46154600266320C043FA
:103250000490039501AA02A93846FFF7BFFF002892
:103260003EDB0198C0881149884229D00020059092
:103270000690079008900298018868468182002194
:10328000018301218175089403A807900199C888DA
:1032900005A9A6DF06000ED0704209E0B08B02003F
:1032A000A4240020A8240020A0240020FFFF000068
:1032B00000B2049014E06846808900B204900FE0E8
:1032C00002990888234603AA0021A4DF060003D040
:1032D000704200B2049003E06846808900B2049016
:1032E000049809B0F0BDFEB507460D461646029695
:1032F0006A4601A93846FFF771FF00280CDB0199E7
:1033000008882B4602AA0021A5DF040002D06042F3
:1033100000B2FEBD0020FCE76320C043F9E70000D7
:103320008A88C28370470022D243C283704738B56F
:1033300005460C46208B022817D12868002814D097
:1033400000BF00BFA17EE27E120211430846C10702
:10335000C90F002902D00020009001E00120009058
:10336000694628462A68904700BF38BD70B50446B4
:103370000D46AE1D31886089814203D13146204619
:10338000FFF7D5FF70BD70B505460C4621462846AF
:10339000243001F055F82088102804D0112807D0D7
:1033A00050280FD109E021462846FFF7B9FF0AE06F
:1033B00021462846FFF7B7FF05E021462846FFF7DC
:1033C000D5FF00E000BF00BF70BDF7B50D46164643
:1033D000002701240098008C20401CD02878002869
:1033E00019D001200743686831190870FF221202C2
:1033F0000240120A4A70FF2212040240120C8A7024
:10340000020ECA7004221019C4B23119288900F0C2
:10341000EEFA0019C4B20098008C0221084210D0C4
:10342000687800280DD0022007433119688900F020
:10343000DEFA0019C4B23119A88900F0D8FA0019CF
:10344000C4B237702046FEBD30B599B004460D4673
:103450000020119000BF10A8007901090901491C42
:1034600010A801710079F0218843103010A908716B
:1034700000BF297910A84171807906218843811CF9
:1034800010A881711C2112A805F0FBF810A8007A81
:1034900010218843103010A9087200201390159055
:1034A000169011A817900020189000BF012108A8BD
:1034B0008173FD496846818500BF00200A9000BFE6
:1034C00008A8007A0109090108A80172007AF02110
:1034D000884308A9087200BF00BF08A8407A010904
:1034E000090108A84172407AF021884308A948726E
:1034F00000BF08A8807A06218843811C08A8817231
:10350000807A08218843014608A88172807A1021B8
:103510008843014608A88172807A41084900491C05
:1035200008A8817214210CA805F0ABF80BA80C9028
:103530000AA80D9001AA06A92046FFF746FF0146FA
:1035400068460187002141871421818701A81090D6
:10355000A088A31D0CAA12A9A2DF19B030BD70B5B6
:1035600090B004460D461C2109A805F08AF808A968
:10357000087902218843801C08A9087100200A905C
:103580000C900D900E900F9000BF01216846817342
:10359000C549491C818100BF00200290A87A694674
:1035A000087200BF6846407A010909016846417205
:1035B000407AF02188436946487200BF6846807AA5
:1035C00006218843811C68468172807A08218843DD
:1035D000014668468172807A102188430146684618
:1035E0008172807A4108490068468172142104A8DA
:1035F00005F047F8A88901A900F0F9F9064603A8E3
:10360000049002A8059068460683002141838683C2
:1036100001A80890A08823460E3304AA09A9A2DFB6
:1036200010B070BD70B590B005460C461C2109A8BD
:1036300005F027F808A9087902218843801C08A909
:10364000087100200A900C900D900E900F9000BF12
:103650000121684681739449891C818100BF002043
:1036600002902520005D6946087200BF6846407AD6
:103670000109090168464172407AF0218843694690
:10368000487200BF6846807A06218843811C6846DC
:103690008172807A08218843014668468172807A67
:1036A00010218843014668468172807A40084000B4
:1036B00069468872142104A804F0E3FF0126206AF9
:1036C000002802D0206A0078019003A8049002A884
:1036D00005906846068300214183868301A80890EF
:1036E000A8882B46163304AA09A9A2DF10B070BD22
:1036F000F0B58BB004460F46E08B6C49884222D06F
:1037000006AA39462046FFF760FE064605960020C9
:103710000190029003900490E18868468180012125
:1037200081710021018105A8039006A80490E08B17
:1037300001A9A6DF0546002D04D16846808AB04263
:1037400000D00C2500E0082528460BB0F0BDFEB5E2
:103750000446FEF7A1FD0190FEF796FF87B2012017
:103760008002029052480088B8420EDD504800881E
:103770000021C943081A401CC019642148434D491F
:10378000098840184B49088009E049480088381AE0
:1037900064214843474909884018464908804448FD
:1037A0000780D5214348008804F077FFC5B2D520B3
:1037B000684340490988081A3E4908803E48006825
:1037C00040193D4908603D482A464243322301984A
:1037D0005843101800906422019850430146009805
:1037E00004F051FF36490988401835490880002DFA
:1037F00002DD0120207001E00020207030480088A8
:1038000020812D4800686060FEF744FF06210646CF
:103810004E437D21C900714308467D21C90004F053
:103820003CFF28490988401826490880FF21693152
:103830002448008804F031FF002802DD0120607078
:1038400001E000206070FF2169311E48008804F00B
:1038500024FF1D49098840181B490880FF21693150
:103860001848008804F019FF88B2164908801648E5
:10387000008860810988711A029A514308463146CE
:1038800004F00BFF114909884018A0810F480188F6
:10389000029808180D4908806078002802D1207825
:1038A000002815D00120FEBD5B2A0000FFFF0000AC
:1038B000B8240020BA240020AC24002000D07700D7
:1038C000B0240020B6240020B2240020B42400201C
:1038D0000020E8E710B504464948FFF738FF002804
:1038E00003D047494748FFF703FF10BDF0B589B043
:1038F00006460C46206830600020C043F083A08953
:10390000308400BF012108A881703F4968460184C6
:1039100000BF321D08A90120A0DF0546002D02D0FE
:10392000284609B0F0BD21463046FFF78DFD05461B
:10393000002D01D02846F4E721463046FFF70FFE60
:103940000546002D01D02846EBE7206A002808D064
:1039500021463046FFF766FE0546002D01D0284679
:10396000DFE7E0690790217E68460176A17BC1729E
:1039700020690490606905900322E11D02A804F00B
:1039800021FEF18A68464183B188818102A93046CF
:10399000243000F081FB1D4A012101A802F0E4FD62
:1039A000054600BF2F46002F07D000BF18A2FF21F9
:1039B000B8313846FCF780FC00BF00BF002201216F
:1039C0008902019802F017FE054600BF2F46002F1E
:1039D00007D000BF0EA2FF21BC313846FCF76CFCBB
:1039E00000BF00BF00209CE71149086070470246F5
:1039F0000A70FF2000021040001248700220704739
:103A0000342F0020E42C002016180000D5380200C6
:103A10006C69625F626C655C626C655F736572762F
:103A2000696365735C626C655F637363732E6300C7
:103A3000AC24002070B504460D4600BF002D01D017
:103A4000012000E000200646002E05D100BFE6A2BE
:103A50003321FCF731FC00BF00BF00BF002C01D0B8
:103A6000012000E000200646002E05D100BFDEA2A6
:103A70003421FCF721FC00BF00BF28782070298882
:103A80002879FF231B02194000200206080A104370
:103A9000607028791B022968194000200204080C74
:103AA0001043A07029791B022868184000210902E0
:103AB000000E0843E07028792071287A6071190C93
:103AC000A8680840000AA0710902A8680840000C14
:103AD000E07170BDF8B505460E46002400BF002E0B
:103AE00001D0012000E000200746002F05D100BFD3
:103AF000BDA24B21FCF7E0FB00BF00BF00BF002DC3
:103B000001D0012000E000200746002F05D100BFB2
:103B1000B5A24C21FCF7D0FB00BF00BF3278204695
:103B2000611CCCB22A542919708800F054F900198C
:103B3000C4B22919B08800F04EF90019C4B229198D
:103B4000F08800F048F90019C4B200BF072C01D179
:103B5000012000E000200746002F05D100BFA2A2EF
:103B60005421FCF7A9FB00BF00BFF8BDF0B58FB032
:103B700007460D4614461E4600BF002D01D0012009
:103B800000E0002000900098002805D100BF96A218
:103B90006D21FCF791FB00BF00BF00BF002C01DDD1
:103BA000012000E0002000900098002805D100BF0F
:103BB0008DA26E21FCF780FB00BF00BF1C2107A86F
:103BC00004F05FFD6946087F02218843801C694636
:103BD0000877002008900A900B900C900D9000BF81
:103BE000012108A881766846078700BF0020019060
:103BF0003178684601717178417180790621884376
:103C0000811C684681718079082188430146684695
:103C100081718079102188430146684681718079DD
:103C20004108490068468171142102A804F029FD69
:103C30000EA8029001A803906846048200214182E8
:103C40008482069502AA07A96F480088149BA2DF08
:103C50000FB0F0BD7FB5044600BF012168468173F7
:103C60006A49818100BF684A03A90120A0DF054697
:103C7000002D02D0284604B070BD208800280DDD3C
:103C800063480090228823463C3362486168FFF70E
:103C90006DFF0546002D01D02846ECE7208900285D
:103CA0000EDD5D480090228923463C335948401F71
:103CB000E168FFF75BFF0546002D01D02846DAE7F3
:103CC000208A00280EDD55480090228A23463C3386
:103CD0005048001F6169FFF749FF0546002D01D0DC
:103CE0002846C8E7208B00280EDD4D480090228B27
:103CF00023463C334748801EE169FFF737FF0546FE
:103D0000002D01D02846B6E7208C00280EDD45485E
:103D10000090228C23463C333E48C01E616AFFF768
:103D200025FF0546002D01D02846A4E7208D002858
:103D30000EDD3D480090228D23463C333548401E21
:103D4000E16AFFF713FF0546002D01D0284692E7F0
:103D5000206B002813D001A8216BFFF76BFE3348BE
:103D600023463C33082201A900902A48801FFFF710
:103D7000FDFE0546002D01D028467CE700BF606BA4
:103D800000280FD02A480090606B027923463C330C
:103D900001682048401CFFF7E9FE0546002D01D0D0
:103DA000284668E7A06B002813D001A8A16BFFF795
:103DB00091FE204823463C33072201A90090154874
:103DC0002730FFF7D3FE0546002D01D0284652E7E5
:103DD00000BF00204FE702460A70FF20000210409B
:103DE00000124870022070476C69625F626C655C0B
:103DF000626C655F73657276696365735C626C653E
:103E00005F6469732E630000BC2400200A18000060
:103E1000BE240020292A0000C6240020CE24002031
:103E2000D6240020DE240020E6240020EE240020FA
:103E3000F6240020FE2400204100924A515A924A62
:103E4000118070478A88428270470022D2434282A2
:103E50007047F8B506460D46AC1D208B022810D1E0
:103E6000A07E0102E07E081880B287490988884256
:103E700007D1FF203ADF5A2039DF68463BDF2ADFCF
:103E800000BFF8BD70B505460C462088102804D048
:103E9000112807D050280FD109E021462846FFF706
:103EA000D1FF0AE021462846FFF7CFFF05E0214673
:103EB0002846FFF7CEFF00E000BF00BF70BDF0B5A1
:103EC00093B004460D4600200590069000216846F8
:103ED00041750621017527210902C1821C210CA808
:103EE00004F0CFFB08A8007C02218843811C08A8AD
:103EF0000174007C08218843411808A80174007CE3
:103F000010218843014608A8017400200D900F90ED
:103F100010901190129005A80F90022168468174AC
:103F20005A49018200200390A97B68460173E97B0E
:103F30004173807B06218843811C68468173807BA6
:103F400008218843014668468173807B102188439D
:103F5000014668468173807B410849006846817349
:103F600000210291142107A804F08BFB04A80790FC
:103F700003A808900221684681840021C18402219F
:103F8000018502A80B90A088A31D07AA0CA9A2DF97
:103F90000646002E02D0304613B0F0BDA8680028B7
:103FA0004FD000BF0121684681743949018200BFAA
:103FB00000200390287C6946087300BF6846407B58
:103FC0000109090168464173407BF0218843694635
:103FD000487300BF6846807B06218843811C684681
:103FE0008173807B08218843014668468173807B0A
:103FF00010218843014668468173807B410849004F
:104000006846817301A8A968FEF70EFF07461421D0
:1040100007A804F036FB04A8079003A80890684698
:1040200087840021C184818C018501A80B90E088E0
:1040300022460E3207A9A3DF0646002E03D03046E3
:10404000AAE70020E0810020A6E7F8B504460D4667
:10405000286820600020C0436082287920750221F2
:10406000684681700B490180221D69460120A0DF4E
:104070000646002E01D03046F8BD29462046FFF7FF
:104080001EFFF9E7C08B02000625002001AC0000EE
:104090000829000001A5000030B58FB004460D4688
:1040A0000020C043A08100202062287C2075287C4D
:1040B000002809D0E868002806D0207D820020462C
:1040C0001030E968FCF74CF8A8886080A868A06107
:1040D000E8782070688AA083686960620020079091
:1040E00000BF6846007F01090901491C6846017745
:1040F000007FF021884310306946087700BF297897
:1041000068464177807F06218843811C6846817715
:104110001C2108A804F0B5FA08A8007820218843DB
:10412000411808A80170007808218843083008A9C0
:104130000870002009900B900C9007A80D900020AB
:104140000E9000BF012168468171D349818000BF74
:104150000020009000BF6846007801090901684608
:1041600001700078F02188436946087000BFA97883
:1041700068464170807806218843811C68468170BA
:104180008078082188430146684681708078102134
:104190008843411868468170807841084900491C6D
:1041A00068468170142102A804F06BFA01A80290FD
:1041B0006846039000210182418213218182002000
:1041C00006906088231D02AA08A9A2DF0FB030BDA7
:1041D00070B503460024012901DA072070BD20468E
:1041E000641C185C1060106801280CD1181905783F
:1041F000467836023543867836043543C678360627
:104200003543556001E00720E8E700BF0020E5E7FF
:1042100070B50346002010260446401C16550E7843
:104220000446401C16550E790546401C56554C68F0
:10423000012C02D100BF00BF00BF70BD7CB5044699
:10424000022000900026208901AB6A460021A5DFEC
:104250000546002D05D0606A002802D02846616A14
:10426000884700BF00BF6A46117952791202114394
:1042700008460221014049080E4630467CBD30B553
:1042800085B00446206A022836D12C20015D0491B5
:1042900000200090019002900390A1886846018060
:1042A000022181700021818004A8029020462D30D7
:1042B0000390A0896946A6DF0546002D06D12C2073
:1042C000005D6946098A884200D00C25002D03D084
:1042D0007248281806D102E0032020620BE0022079
:1042E000206208E000202062606A002802D0284690
:1042F000616A884700BF00BF05B030BD70B58CB0A3
:1043000004460E46664A07CA09AB07C3022168463F
:104310000172002181812046FFF790FF00280AD01A
:10432000206A002802D16946888108E0FF20813098
:104330006946888103E0FF20823069468881A08930
:1043400002A9A8DF0546002D05D0606A002802D02A
:104350002846616A884768468089002801D00CB0E9
:1043600070BD022020620790317E09AA30461A30C3
:10437000FFF72EFF0546002D04D009980690022075
:1043800007901EE0099806900998012815D1207819
:104390000221084002280DD10120079000900A98C0
:1043A0000190A069002807D069462046A26990477D
:1043B000079001E00220079002E00220079000BF72
:1043C00000BF22462D3206A92046FFF721FFC1B2C9
:1043D0002C200155206A022802D12046FFF74FFF0A
:1043E00000BFBCE770B505460E46B41C2078022815
:1043F00007D16088A988884203D1A11C2846FFF70D
:104400007DFF70BD10B50446206A022802D1204607
:10441000FFF735FF10BD8A88828100220262704753
:104420000022D2438281002202627047CA888388B8
:104430009A4204D1026A032A01D100220262704723
:1044400070B505460C46208811280FD004DC0128E1
:104450001BD010281DD104E051280CD0532818D1AE
:104460000EE021462846FFF7D6FF13E021462846F6
:10447000FFF7D6FF0EE0211D2846FFF7B3FF09E046
:1044800021462846FFF7D2FF04E02846FFF7BAFF8F
:1044900000E000BF00BF70BD552A0000FDCFFFFF48
:1044A000D08B020030B58FB004460D460020C043CB
:1044B000A08100202062287C2075287C002809D05B
:1044C000E868002806D0207D820020461030E96888
:1044D000FBF746FEA8886080A868A061E878207095
:1044E000688AA083686960620020079000BF684600
:1044F000007F01090901491C68460177007FF0210E
:10450000884310306946087700BF297868464177AC
:10451000807F06218843811C684681771C2108A87A
:1045200004F0AFF808A8007820218843411808A8B3
:104530000170007808218843083008A9087000201D
:1045400009900B900C9007A80D9000200E9000BFD2
:10455000012168468171D649818000BF002000900A
:1045600000BF6846007801090901684601700078BB
:10457000F02188436946087000BFA97868464170F9
:10458000807806218843811C6846817080780821E4
:10459000884301466846817080781021884341181D
:1045A00068468170807841084900491C68468170DE
:1045B000142102A804F065F801A80290684603904F
:1045C00000210182418213218182002006906088AF
:1045D000231D02AA08A9A2DF0FB030BD70B50346A3
:1045E0000024012901DA072070BD2046641C185CF4
:1045F0001060106801280CD1181905784678360229
:104600003543867836043543C678360635435560DB
:1046100001E00720E8E700BF0020E5E770B50346AA
:10462000002020260446401C16550E780446401CE7
:1046300016550E790446401C16554C68012C0CD1B9
:104640000C68202C07D1AB260446401C16550546A5
:10465000401C565500E000BF00BF70BD7CB504464D
:10466000022000900026208901AB6A460021A5DFC8
:104670000546002D05D0606A002802D02846616AF0
:10468000884700BF00BF6A46117952791202114370
:1046900008460221014049080E4630467CBD30B52F
:1046A00085B00446206A022836D12C20015D049191
:1046B00000200090019002900390A188684601803C
:1046C000022181700021818004A8029020462D30B3
:1046D0000390A0896946A6DF0546002D06D12C204F
:1046E000005D6946098A884200D00C25002D03D060
:1046F0007048281806D102E0032020620BE0022057
:10470000206208E000202062606A002802D028466B
:10471000616A884700BF00BF05B030BD70B58CB07E
:1047200004460E460221684601720021818120461E
:10473000FFF794FF00280AD0206A002802D16946BA
:10474000888108E0FF20FF306946888103E0FF2070
:10475000FE3069468881A08902A9A8DF0546002DA0
:1047600005D0606A002802D02846616A88476846FA
:104770008089002801D00CB070BD02202062079013
:10478000317E09AA30461A30FFF728FF0546002D72
:1047900004D009980690022007901EE00998069020
:1047A0000998012815D120780221084002280DD14E
:1047B0000120079000900A980190A069002807D076
:1047C00069462046A2699047079001E002200790C1
:1047D00002E00220079000BF00BF22462D3206A94A
:1047E0002046FFF71BFFC1B22C200155206A02288A
:1047F00002D12046FFF753FF00BFBCE770B5054666
:104800000E46B41C2078022807D16088A988884207
:1048100003D1A11C2846FFF781FF70BD10B50446E7
:10482000206A022802D12046FFF739FF10BD8A888E
:1048300082810022026270470022D24382810022DC
:1048400002627047CA8883889A4204D1026A032AA6
:1048500001D100220262704770B505460C462088DF
:1048600011280FD004DC01281BD010281DD104E032
:1048700051280CD0532818D10EE021462846FFF7C6
:10488000D6FF13E021462846FFF7D6FF0EE0211D94
:104890002846FFF7B3FF09E021462846FFF7D2FF7D
:1048A00004E02846FFF7BAFF00E000BF00BF70BD7C
:1048B000662A0000FDCFFFFF10B50446FE480068E1
:1048C000844200D110BDFC480460FC480068002808
:1048D00004D0F9480068F9490968884700BFF1E742
:1048E00070B58AB006460C461546F5480078002893
:1048F00001D00AB070BD052D00DCFAE70420FFF7F7
:10490000DBFFA17868460171802141716078C21C8B
:10491000611C01A8023003F055FE01A803F069FCF8
:1049200000BFE6E737B584B004460D46002C02D13F
:104930000E2007B030BDA08AE249884202D0A07D97
:10494000002801D10820F4E76846008B142801DD17
:104950000720EEE700200090019002900390A189CB
:1049600068460180039506A802900121684681707F
:10497000A08A6946A6DFDCE710B5044660780928FE
:1049800006DC6078021D2146CF480068FFF7CAFFA9
:1049900010BD8A88828270470022D243828270478B
:1049A00070B504460E46B51D2988208A814213D170
:1049B000288B022810D100BF00BFA97EEA7E120218
:1049C00011430846C107C90F002902D00120A07574
:1049D0000FE00020A0750CE02888A188884208D14B
:1049E000A069002805D02A8B29461A312046A369E0
:1049F000984770BD30B58FB004460D460020079033
:104A000000BF6846007F01090901491C684601771B
:104A1000007FF021884310306946087700BF00BF4F
:104A20006846407F01090901491C68464177407F7B
:104A3000F021884310306946487700BF6846807F80
:104A400006218843811C684681771C2108A803F051
:104A500018FE08A8007810218843411808A80170A2
:104A6000002009900B900C9007A80D9000200E904C
:104A7000217868468171954981800020009000BFAF
:104A80006846007801090901491C684601700078F0
:104A9000F021884310306946087000BF00BF6846A7
:104AA000407801090901491C684641704078F021AD
:104AB000884310306946487000BF684680780621F8
:104AC0008843811C684681708078082188430146AC
:104AD000684681708078102188430146684681705D
:104AE000807841084900491C68468170142102A859
:104AF00003F0C7FD01A802906846039001210182DE
:104B00000021418214218182608823460C3302AA4D
:104B100008A9A2DF0FB030BD30B58FB004460D46F6
:104B20001C2108A803F0ADFD08A8007808218843DF
:104B3000411808A80170007804218843011D08A8C5
:104B40000170002009900B900C900D900E90217830
:104B5000684681725D49491C01810020019000BFB7
:104B60006846007901090901491C6846017100790C
:104B7000F021884310306946087100BF00BF6846C5
:104B8000407901090901491C684641714079F021C9
:104B9000884310306946487100BF68468079062115
:104BA0008843811C684681718079082188430146C9
:104BB0006846817180791021884301466846817179
:104BC000807941084900491C68468171142103A875
:104BD00003F057FD02A8039001A804900121684644
:104BE00081820021C182142101836088231D03AAD0
:104BF00008A9A2DF0FB030BD10B5044632480068E6
:104C0000002801D0002C00D110BD2088102804D02D
:104C1000112808D0502812D10BE021462A480068FC
:104C2000FFF7B7FE0CE0214627480068FFF7B4FE07
:104C300006E0214624480068FFF7B2FE00E000BF0E
:104C400000BF00BFE0E730B585B00546204B0FCB75
:104C50006C460FC41C480068002801D0002D02D10A
:104C60000E2005B030BD0120FFF726FE0020C04316
:104C700015490968888214492868096888610020F4
:104C800011490968887510480168684662DF044662
:104C9000002C01D02046E4E70B4800680178684604
:104CA00081740A49491E018207480268921C04A9BE
:104CB0000120A0DF04460DE00C2500201025002077
:104CC00014250020FFFF000008250020C2FE000080
:104CD000E48B0200002C01D02046C2E7294612488E
:104CE0000068FFF787FE0446002C01D02046B8E795
:104CF00029460D480068FFF70FFF0446002C01D03D
:104D00002046AEE7094802F005FD0320FFF7D4FD79
:104D10000020A6E70649086070470648006870470B
:104D200005490870704700000825002079490200F5
:104D3000102500200C25002014250020F7B584B094
:104D400004460F4606980678B01C1F2803DC20791D
:104D5000801C1F2802DD0C2007B0F0BD1F20801B27
:104D6000801E85B20295B11C781802A97DDF0390E0
:104D70000398002801D00398EEE72068022808D1A4
:104D800068460089A84204DC09200190684605892C
:104D90000BE0082001902079002804D02079A84257
:104DA00001DC257901E068460589681CC2B23046FD
:104DB000711CCEB23A543046721CD6B201993954A5
:104DC00006980178A81C0818C1B206980170002046
:104DD000C2E7F8B505460C462078001D1F2801DD06
:104DE0000C20F8BD684679DF0646002E01D030461B
:104DF000F7E703212278501C2070A954192122784A
:104E0000501C2070A954207841196846008800F091
:104E1000ABFA2178401820700020E2E7F8B505468B
:104E20000F4616461C466868002801D10720F8BDC9
:104E30002078801C298840181F2801DD0C20F6E707
:104E40002878401CC1B22278501C2070B1542178BF
:104E5000481C207077542A8823789819696803F0D1
:104E6000B1FB20782978401820700020DFE730B5AA
:104E700003461078C01C1F2801DD0C2030BD022421
:104E80001578681C10704C550A241578681C107031
:104E90004C551578681C10704B550020EEE7FFB597
:104EA0008BB006461D46149C00200A90207809907D
:104EB000002763E0B900706841180A8868460283D9
:104EC00049884183002207A906A864DF0890089852
:104ED000002802D008980FB0F0BD6846017F0D98F9
:104EE00081424AD10A98002801D0002000E0022027
:104EF000059020786946097F4118059808181F28F1
:104F000001DD0C20E7E70A98002809D12078401C31
:104F100020702278511C0C982170A85401200A900E
:104F20006846807E022803D06846807E01280AD128
:104F30002078421907A906A864DF0890089800287D
:104F400015D00898C7E76846807E03280FD1FA4835
:104F500001460EC9C0680393029201910490217822
:104F6000481969460A7F01A903F02CFB00BF20788D
:104F70006946097F4018207000BF7F1C3088B84206
:104F800098DC0A98002806D021780998401C081A55
:104F9000C1B20998295400209DE7FFB581B00746AA
:104FA00015460A9E009602223846049B0299FFF796
:104FB00076FF0446002C02D0204605B0F0BD0096D6
:104FC000102229463846049BFFF769FF0446002C4F
:104FD00001D02046F1E70020EFE7014608880628C7
:104FE00008DB08881922D201904205DD0888D34ADF
:104FF000904201D0072070474888062808DB48887F
:105000001922D201904205DD4888CC4A904201D055
:105010000720F0E70888C94A904208D048889042A3
:1050200005D008884A88904201DD0720E3E7002088
:10503000E1E7F8B506460D4614462078801D1F2886
:1050400001D90C20F8BD3046FFF7C7FF0746002FF7
:1050500001D03846F6E705212278501C2070A9546B
:1050600012212278501C2070A954227851193088BE
:1050700000F07AF921784018207022785119708850
:1050800000F072F92178401820700020DAE7F8B5B6
:1050900005460E4614462879801CC7B22078801C2D
:1050A000C0191F2801DD0C20F8BD781CC1B2227880
:1050B000501C2070B154FF212278501C2070B15434
:1050C00022789119288800F04FF921784018207033
:1050D000A88800280EDDA868002801D10720E3E792
:1050E000AA8823789819A96803F06CFA207829799E
:1050F000401820700020D7E7FEB507460E4614463C
:10510000786B002801D10720FEBD0020019032E01D
:10511000796B0C22019850430D182879801CC0B27D
:1051200000900098401CC1B22278501C2070B154ED
:1051300016212278501C2070B154227891192888A9
:1051400000F012F9217840182070A88800280EDDA0
:10515000A868002801D10720D6E7AA8823789819E3
:10516000A96803F02FFA2078297940182070019857
:10517000401CC0B201903820C15D01988142C7DC5B
:105180000020C1E7F8B504460F461646002500206A
:1051900030702068002809D0324639462046FFF793
:1051A000CDFD0546002D01D02846F8BD60790028C8
:1051B00008D031463846FFF70CFE0546002D01D0D9
:1051C0002846F2E7208900280BDD33463A460121C4
:1051D00020460830FFF722FE0546002D01D0284664
:1051E000E3E7206900280BD00020216908563246E9
:1051F0003946FFF73CFE0546002D01D02846D4E78E
:10520000A08A00280CDD3B460622022120461430ED
:105210000096FFF7C2FE0546002D01D02846C4E7E0
:10522000A08B00280CDD3B460722032120461C30C2
:105230000096FFF7B2FE0546002D01D02846B4E7E0
:10524000A08C00280CDD3B4615221421204624307A
:105250000096FFF7A2FE0546002D01D02846A4E7E0
:10526000E06A002809D032463946E06AFFF7E1FEDD
:105270000546002D01D0284697E7206B002809D06D
:1052800032463946206BFFF702FF0546002D01D05C
:1052900028468AE73820005D002809DD3246394675
:1052A0002046FFF729FF0546002D01D028467CE760
:1052B00028467AE701460889002807D0C8680028F0
:1052C00004D0C86800780422104201D1072070473A
:1052D0000020FCE701460889002801DD072070470F
:1052E0000020FCE7F3B593B00D4600211291119117
:1052F0001398002814D01398FFF7DCFF0446002C05
:1053000002D0204615B0F0BD12AA09A91398FFF7E4
:1053100039FF0446002C01D02046F3E709AE00E037
:105320000026002D18D02846FFF7D4FF0446002C95
:1053300006D02046E6E70000F48B0200FFFF0000E5
:1053400011AA01A92846FFF71DFF0446002C01D031
:105350002046D7E701AF00E0002710A803793A46BE
:10536000017A304672DFCDE702460A70FF20000264
:105370001040001248700220704700000146488823
:10538000B74A1288904206DB4888B54A5288904254
:1053900001DC012070470020FCE738B50546B14824
:1053A0000088B14988423BD0B0480078401CAF49E2
:1053B0000870AF48007B097888420FDBA849A948EC
:1053C000008875DF0446002C07D0A94880690028B2
:1053D00003D0A74881692046884721E00020A349DF
:1053E0000870A348007C00280FD03B219D4800880E
:1053F00076DF0446002C07D09D488069002803D042
:105400009B4881692046884700BF99484069002829
:1054100006D000200090964841696846884700BF42
:1054200038BD70B505461C2229469148FAF798FE0A
:10543000002090490870286800280BD0082288486E
:10544000296803F0BFF886487ADF0446002C08D0AC
:10545000204670BD82487BDF0446002C01D02046E8
:10546000F7E70020C0437F49088000207F4908708B
:10547000814A0021814801F077F8EAE710B57F48BA
:10548000006801F0E9F810BD38B57D48FFF776FFF8
:10549000002829D17748007800280AD0744840694C
:1054A000002820D000200090714841696846884754
:1054B00019E06E480078002802D16D48456801E087
:1054C0006B488568002229466C48006801F093F813
:1054D0000446002C07D066488069002803D0644841
:1054E0008169204688470AE061484069002806D063
:1054F000012000905E4841696846884700BF00204F
:105500005C49087038BD10B50446A088554908802C
:10551000082221460E315A4803F054F8002053491E
:1055200008705348C089002801D1FFF7ADFF10BDB6
:1055300070B505460020C0434A49088000204B4909
:1055400008704E48006801F087F80446002C07D028
:1055500047488069002803D045488169204688472C
:1055600070BD70B50546AC1D20884149C989884287
:1055700020D1208B02281DD100BF00BFA17EE27E7A
:10558000120211430846C107C90F002902D0FFF7D4
:105590007BFF0FE03948006801F05EF80646002EF8
:1055A00007D033488069002803D0314881693046EC
:1055B000884700BF70BD10B504460822A11D3048C1
:1055C00003F000F8FFF760FF10BD10B50446208817
:1055D000102806D0112808D012280ED0502810D13B
:1055E00007E02046FFF78FFF0CE02046FFF7A0FF03
:1055F00008E02046FFF7B5FF04E02046FFF7DBFF99
:1056000000E000BF00BF10BD38B5044608222146A7
:10561000134802F0D7FF12487ADF0546002D1CD14F
:105620001748FFF7ABFE00280BD101201149087085
:105630000B490C48008875DF054601200B490870AE
:105640000BE00B484069002806D001200090084874
:1056500041696846884700BF0025284638BD0000DC
:105660001A25002024250020FFFF0000222500200D
:10567000602F0020182500209B53020030250020B9
:105680002625002070B506460C46154629462046BC
:10569000FAF723FE70BDF8B571480078002800D1F4
:1056A000F8BD70480068002801D1012000E000200A
:1056B00005466D480068002801D1012000E0002067
:1056C00006466A480068002801D1012000E0002059
:1056D000074600BF002D14D168464EDF0446052C56
:1056E00001D101250CE0002C06D000BF60A2692189
:1056F0002046FAF7E1FD03E05A4900980968884717
:1057000000BF002E1AD162480088009069466148A7
:10571000006860DF0446052C01D101260DE0002C55
:1057200006D000BF52A280212046FAF7C5FD04E052
:10573000584800684C490968884700BF002F19D1B4
:1057400054480268921C0168491C0068C1DF044685
:10575000052C01D101270DE0002C06D000BF44A28A
:1057600098212046FAF7A8FD04E04A4800683F491E
:1057700009688847002D04D0002E02D0002F00D0E9
:1057800000E0A7E700BF00BF8AE7FFB581B00C4685
:1057900016461F46002C02D1072005B0F0BD20465A
:1057A0008107890F01D1012100E00021002901D1E9
:1057B0000720F2E73748046035480680364807601E
:1057C0003649019810DF0546002D01D02846E4E750
:1057D000012023490870162023DFDEE710B511DF12
:1057E0000446002C01D0012000E000201C49087074
:1057F000204610BD0146002901D10E2070471A48ED
:1058000001600020FAE70146002901D10E2070470F
:10581000164801600020FAE70146002901D10E2058
:105820007047104801600020FAE770B51A48006818
:10583000002811D0184800688047044600BF25465C
:10584000002D07D000BF0AA2FF2133312846FAF706
:1058500033FD00BF00BF01E0FFF71DFF70BD00007A
:10586000342500204C250020442500204825002018
:105870006C69625F626C655C736F6674646576699F
:1058800063655F68616E646C65722E630000000082
:10589000402500203C2500203825002085560200A8
:1058A000F0B502460C46002035E00123834019463E
:1058B00023460B422ED0D5680D4205D101235B044F
:1058C000D5680D43D56004E003231B04D5688D43E0
:1058D000D56005252D0707263602AD198600AD597E
:1058E00003263604B5430526360707273F02F61977
:1058F0008700F55105252D0707263602AD198600CC
:10590000AD591D430526360707273F02F6198700C4
:10591000F55100BF401C2028C7D3F0BDFEB5E148BB
:1059200006690020E049C863002527E01420684389
:10593000DE49096844180120A840DD490968084289
:105940001AD0E068C04370402168084007463946D5
:105950002046FFF7A5FFA068B0433840009060687C
:1059600030403840019000990198084303D02269E3
:1059700000990198904700BF681CC5B2CD480078D7
:105980008542D3DBFEBD10B50146002028E014227D
:105990004A43C64B1B689A58012383401A421ED0C3
:1059A0000522120707231B02D2188300D2580323B3
:1059B0001B049A4305231B07072424021B19840098
:1059C0001A510522120707231B02D2188300D2584E
:1059D00005231B07072424021B1984001A51401CAD
:1059E0002028D4D310BD70B505460C46002C01D13B
:1059F000072070BD20468107890F01D1012100E0F9
:105A00000021002901D10720F3E7A8480460AA4833
:105A100005700020A7490870A5490860A6480078CD
:105A2000142250430146A148006802F02AFE0020DB
:105A3000C043A2498860062001218140A04A11602C
:105A400000BF012100F0F7F80620012181409D4AA6
:105A5000116000BF0020CCE7F8B504460D4616469D
:105A60001F4692480068002801D10820F8BD002F89
:105A700001D10720FAE78F4800788F4909788842DA
:105A800001DB0420F2E7284630438A4909781422D2
:105A90005143864A12685050864800781421484382
:105AA00082490968401845608248007814214843BB
:105AB0007E490968401886607E4800781421484372
:105AC0007A490968401807617A4800782070794857
:105AD0000078401C774908702078FFF754FF0020B9
