:020000040002F8
:10000000E03F002099010200AB010200AD010200B7
:1000100000000000000000000000000000000000E0
:10002000000000000000000000000000AF0102001E
:100030000000000000000000B1010200B301020056
:10004000B5010200B501020091480200B5010200AD
:10005000B501020000000000813D0200B501020070
:10006000B5010200B5010200B5010200B5010200B0
:10007000B5010200B5010200B5010200B5010200A0
:10008000B5010200D1410200B5010200B501020034
:10009000E74102002D350200353D0200B5010200A6
:1000A000B5010200B50102000000000000000000E0
:1000B0000000000000000000000000000000000040
:1000C00000F002F800F02CF80CA030C80838241812
:1000D0002D18A246671EAB4654465D46AC4201D180
:1000E00000F01EF87E460F3E0FCCB6460126334286
:1000F00000D0FB1AA246AB4633431847C462000047
:10010000D462000010B5642902D105F0E7FC10BDEF
:10011000002010BD1FB5C046C0461FBD10B510BDA4
:1001200005F07BFF1146FFF7F5FF00F04DF905F0F4
:1001300093FF03B4FFF7F2FF03BC05F097FF000045
:10014000401E00BF00BF00BF00BF00BF00BF00BF18
:1001500000BF00BF00BF00BF00BFF1D1704700006B
:1001600070B505460C46164602E00FCC0FC5103E92
:10017000102EFAD2082E02D303CC03C5083E042E5B
:1001800007D301CC01C5361F03E021782970641C18
:100190006D1C761EF9D270BD0A4802680F210A4311
:1001A00002600948804709480047FEE7FEE7FEE78E
:1001B000FEE7FEE7FEE7000005480649064A074B52
:1001C0007047000024050040E9010200C100020060
:1001D000E02F0020E03F0020E0370020E037002043
:1001E000234922480860704710B500F01DF8002828
:1001F00005D021491F484860C8132049886120481C
:10020000018CC9B201290ED1818C09070BD1018D56
:100210000906090F042906D1808D0006000F02D1BE
:1002200018490120886010BD1548018CC9B2012908
:1002300017D1818C090714D1018D09060A0F03D14A
:10024000828D1206120F0ED0090F012903D1828D63
:100250001206120F07D0032903D1808D0006000F6C
:1002600001D0002070470120704700000024F400F6
:1002700000240020DFFF07C000050040006C0040A4
:10028000C00F00F000060040924B1980BFF34F8F63
:10029000DA60986091499048C860BFF34F8FFEE7DD
:1002A0008C4A1080D1600A4601468D48FFF7ECFF6A
:1002B00010B5044600F0E5FD204600F073FB204633
:1002C00005F036FA204603F0E4F810BD10B5052815
:1002D00003D00020FFF7ECFF10BD0120FFF7E8FF7F
:1002E000002000F0CEFD10BD10B5042803D0002082
:1002F000FFF7DEFF10BD0120FFF7DAFF002000F05E
:1003000051FB10BD10B5042803D00020FFF7D0FF2B
:1003100010BD0120FFF7CCFF002005F009FA10BD49
:1003200010B5042803D00020FFF7C2FF10BD012044
:10033000FFF7BEFF002003F0ACF810BD10B500239E
:10034000502268490B2003F0C0FC002802D066A2AE
:10035000E4210EE0674803F0D5FC002802D062A239
:10036000E82106E0644803F0D5FC002803D05EA233
:10037000EC21FFF789FF10BD70B5054601F0D7F8F5
:1003800005F07EFC044601F0D2F8014655482246AD
:10039000503005F097FC534C5034002D09D001F03B
:1003A000C6F805F06DFC00192A4654A105F05AFB69
:1003B00007E001F0BCF805F063FC001951A105F05D
:1003C00051FB4848503070BD1CB500244E4B0B22E9
:1003D0000A211F20009403F02CFF002802D042A223
:1003E000932108E03F490120143903F02FFD002834
:1003F00003D03DA29A21FFF747FF01F041F801F039
:1004000087F80546FFF79AFF2046FFF7B5FF00F093
:1004100057FE01F085F800F0E0FE3C4800F0A1FE38
:100420003B4800F051FA3B4805F07AF9284601F0C4
:100430009FF8284600F0C6F800F025FA012000F0E9
:1004400021FC01F06DF800F01FFD00F0A3FE00F0AC
:1004500014FF00F034FF00F080FF00F0BCFFFF202D
:100460003ADF28463ADF012039DF284602F0B4FBA4
:10047000294E2A4D174C01A804F00DFB002803D18A
:100480006846007900F058F900F0D1F800F01FFA42
:10049000032807D300F0E0FC032803D201F098FB07
:1004A000002802D16068B0420FD101F091FBFFF744
:1004B00063FF00F041FE00F040FC04F04AFC04F051
:1004C0007CFD05F068F86560D5E7A842D3D2401CF2
:1004D0006060D0E7042400200400FA0500ED00E08D
:1004E000EFBEADDEF82A00207372635C6D61696E49
:1004F0002E6300001F0E0200150902002025303572
:100500006400000000000000DC250020CD02020095
:10051000E902020005030200FEFF3F00FFFFFF00AB
:1005200010B501F055FF10BD10B501F086FF10BDEC
:10053000082802D29C49085C70470020704770B5BB
:1005400004460025A42004F0ADFA207804F0AAFAAD
:10055000607804F0A7FA60784E2801D04F2810D1B7
:10056000924842680121002A01D0417009E0904977
:100570001020886005E06019807804F093FA6D1C03
:10058000EDB22078A842F6D8A07B04F08BFA0020C8
:1005900070BD10B503461A78A4201446424058781E
:1005A0000021504004E05A1892785040491CC9B2CA
:1005B0008C42F8D810BD7D49002048707C4910203D
:1005C000C86070471FB57949002408708C704C6072
:1005D000784800F052FF0121774A10201160744AD8
:1005E000D06076480268D20700D0012402689207E2
:1005F00001D5022214430068400701D5202004439E
:100600006A4611706F20507094706846FFF7C1FF02
:100610006A4690736846FFF792FF002004B010BD51
:1006200010B562480078FFF7CDFF002010BD7FB500
:100630005E4D686805283DD16148FFF7AAFF604C10
:10064000A17B884234D100F007FC042803D000F0DD
:1006500003FC052816D100F05BFF5349095CA07824
:1006600081420CD000280DD100F052FF062803D0A3
:1006700000F04EFF042805D1E078BD2802D1504893
:1006800000F0CEFC00F023F902280ED001F0A0FA11
:10069000002807D100F03CFF052803D100F017F92E
:1006A00003280AD0464800F080F9454800F0ECFFE6
:1006B00000206860002004B070BD4E20694648707C
:1006C0002878FFF735FF69468870AC20C870012094
:1006D0000871092008706846FFF75BFF6946887358
:1006E0006846FFF72CFFE0E71FB540246B465C70BF
:1006F0009A70D8701971032018706846FFF749FF87
:100700006B4698736846FFF71AFF87E710B52C4CC5
:10071000092020704E206070002001462218401CE5
:10072000C0B291700828F9D32548FFF732FFA073B3
:10073000234800F03AF910BD70B51C494E680024FA
:1007400001251F4A330005F0B5FC050407101328E6
:100750002C00A42803D025E010700C2801D94D608E
:1007600020E0022048608C701CE05070032016E0EE
:1007700014788B789C4203D9D418A0705B1C8B70C2
:100780001078DAB290420DD80420486048780028EA
:1007900008D007491020886004E090730520486065
:1007A00000E04C60002070BD206202001424002094
:1007B00000050050B705020010070050000400407B
:1007C000682B0020FB49CA68904205D0C8608A683F
:1007D000002A01D0C8681047704738B5F54C20781A
:1007E000002500280BD0A5802570E068012817D0CF
:1007F000E068022814D0607800280DD010E0E0688E
:100800000228F1D0A088401C80B2A0807828EBD9C3
:100810000320FFF7D7FFE7E700F07AFE072802D0B2
:10082000E580657038BDE088401C80B2E08001281A
:10083000F7D969460020E7DF694608788007800F0E
:100840000870022801D0032819D10020C5DF002834
:1008500003D0D9A28621FFF717FD69460020E7DF04
:10086000694608788007800F08700128F5D10020BC
:10087000C3DF002803D0D0A28E21FFF705FD0120A1
:10088000FFF7A0FFCDE7CB4810B5D04A01211030CB
:1008900003F021FD002803D0C7A24321FFF7F4FC99
:1008A000C448012100228902006903F05BFD002891
:1008B00003D0C1A24521FFF7E7FCC549002008701D
:1008C00088808871C87110BDBA4988607047B9487E
:1008D000C068704770471FB5C1784E2903D04F29B3
:1008E00001D0502915D1811C0B22684605F0EAF988
:1008F0006846FFF74EFE6946AE4C8873A078002824
:1009000002D10846FFF71BFE012020700420FFF7EC
:1009100059FF1FBD10B50278130005F0CBFB06048C
:1009200004042522281D4178062916D006DC0B0078
:1009300005F0C0FB061213131313131209290CD070
:1009400004DC072909D0082906D106E00A2904D0C9
:10095000802901D1FFF7BFFF10BD0120FFF7C4FEC2
:1009600010BD04F02BFA10BD04F060FB10BD04F0C4
:10097000A1FE10BD1CB597A103C90191009000F024
:100980006BFA694688708B48C068C87008216A464F
:100990000020C7DF002804D0FF2187A24B31FFF7DA
:1009A00073FC1CBD834988707047F8B50746814EBB
:1009B00001207070B878BC1C022874D86946E7DF43
:1009C000684600788107890F6846017000F0A0FD35
:1009D0007F4D072813D101F0FBF8A98888420ED07B
:1009E00001F0F6F881B2A980EB79AA792878D3DFF3
:1009F000002804D0FF2170A27B31FFF745FC384668
:100A0000FFF7C7FDB97B88424DD178784E2809D0D1
:100A10004F2807D0502805D04A2803D0227800213B
:100A2000FFF762FE78784038030005F043FB153C81
:100A30000C186B78818A939D3CAEB2D73CE5FCF0F4
:100A4000513CA7EF3C00684600780128DCD12078B3
:100A5000C3DF002827D0FF2157A28F3109E1684664
:100A60000078022804D0032802D001281CD024E0FA
:100A70002078C5DF002804D0FF214FA29631FFF770
:100A800003FC20786946E7DF694608788007800F15
:100A900008700128F5D12078C3DF00280DD0FF2190
:100AA00045A29F3107E073E02078C3DF002804D01F
:100AB000FF2141A2A431FFF7E7FBA27861782078FB
:100AC0000023C2DF0028C5D0FF213BA2A731D0E020
:100AD000A17860780902401881B22379E278207801
:100AE000D3DF21782970A278617812028918A98051
:100AF000E178A9712179E9710028ABD0FF212EA2FC
:100B0000B031B6E0A17860780902401881B220784F
:100B1000D1DF00289ED0FF2127A2B531A9E061785E
:100B20002078D6DF002895D0FF2123A2BA31A0E09B
:100B300061782078CDDF00288CD0FF211EA2BF3144
:100B400097E02078611CCCDF0028BCD0FF211AA2DE
:100B5000C4318EE0002220780421CFDF0028B2D0FB
:100B6000FF2115A2C93184E06178A0780022EADF74
:100B700000280DD0FF2110A2CE317AE0E9DF002855
:100B800079D0FF210CA2D33173E0C0DFFFF748FD1D
:100B900071E02078C4DF002804D0FF2106A2DE31F6
:100BA000FFF772FBF068042865D00320FFF70AFE08
:100BB00061E000001C2400207372635C414E5468A5
:100BC000616E646C65722E6300000000DB0702003A
:100BD000782B0020EF01000000000000684600783C
:100BE000032801D0022846D12078C5DF002842D052
:100BF000FF21224AEA313CE06846007803283AD1D6
:100C0000B078002805D0FFF7B5FE34E02AE01BE0FD
:100C100009E0621C20780821C7DF00282BD0FF21C3
:100C2000164AFD3125E068460078032823D1B078C4
:100C30000028E8D1621C20780821C8DF00281AD0DB
:100C400083210E4A890014E068460078032812D1F7
:100C50000023621C20780821C9DF00280BD0074A36
:100C6000074906E02046ECDF002804D00449034A87
:100C7000891DFFF709FB0020F8BD0000B80B02003A
:100C800015020000F7490A69904205D00861CA6858
:100C9000002A01D008691047704770B5A2B006213C
:100CA00020A8F14A017107CA1EAB07C3ED4C10A87A
:100CB00061890187A0780326002804D0EB4910A899
:100CC000018718A886763C21684605F05AF802206C
:100CD00000900021684641710125058121A80390FB
:100CE0003C210FA805F04DF810A806831EA8179008
:100CF0000FA9684602F06BFD002803D0DCA2BC21DE
:100D0000FFF7C2FA657022B070BD002814D0D54834
:100D10000169032910D1C1784A07491C520FC170DB
:100D2000002A09D182780021002A01D0817001E0D7
:100D3000012282704170B0E7704710B5D14873DF6F
:100D4000002804D0FF21CAA2C431FFF79DFA032076
:100D5000FFF798FFCC4A0621032002F0F1FB0028A0
:100D600003D0C3A27D21FFF78FFAC8490120086094
:100D7000C6491839086010BD10B5BA4902880B89F8
:100D8000142A2ED012DC102A1BD0112A1DD0132AAF
:100D900020D10A461C32002118467FDF002819D0D6
:100DA000FF21B3A2FA31FFF76FFA2AE0172A12D017
:100DB000192A2DD0522A0DD1002211461846A9DF3A
:100DC0001DE080880881042026E00020C0430881BF
:100DD000FFF7B3FF10BD811D3222AD4804F072FF52
:100DE00010BDAB49C089891D0A88824203D1002207
:100DF000184681DF03E000221146184681DF0028F3
:100E0000EED011219AA249010020FFF73DFA10BD52
:100E100080790028FBD10320FFF734FF10BD10B507
:100E2000044601F06AFA9A482146343001F022FB68
:100E3000944821467C3800F005FF92482146183836
:100E400001F0D0FE204602F0A9FA204602F060FE32
:100E50002046FFF791FF10BD8248006970471CB51E
:100E60008CA103C900907F48019100696946887090
:100E7000FFF72DFD6946C8700822884803F0C7FEB9
:100E80001CBD78490870704710B57649488101202B
:100E9000FFF7F8FE14217B4804F073FF7948002126
:100EA00001704160FF220172913202824182FFF79C
:100EB000F4FE10BDF7B584B00D46074600260920A4
:100EC0006946684C0870207800287DD10520FFF71E
:100ED000D9FE734838180027002829D0202873D15C
:100EE00050206946487000F013FB06283AD000F005
:100EF0000FFB042836D000F00BFB07287FD000F052
:100F000007FBFFF715FB0007000F6946887029787B
:100F100009090901084369468870012600206946CD
:100F2000069A90426DD28219AA5C0B18DA706AE0B8
:100F30002878BC2807D100F0EBFA06280DD000F085
:100F4000E7FA042809D04E206946487000F0E0FA1C
:100F5000FFF7EEFA69468870E0E74F216846417076
:100F60008770DBE7287843095B0102D1A7712771FD
:100F700067714C4E002029184A78A179401C7254A0
:100F8000491CC0B2A1710828F5D3192B2FD900250F
:100F900028E0002C2ED0202C2FD00321601E04F03E
:100FA0000DFF48012030694688702E49641C0C7181
:100FB00000204A796B461B18B45C521C401CDC7044
:100FC000C0B24A71082800E011E0F2D36846FFF78A
:100FD000E0FA694688736846FFF7B1FA6D1CEDB216
:100FE000052D04D21F48047981798C42D1D307B0F2
:100FF000F0BD04E068468770D7E7C020D3E72878C3
:1010000089E70A18D770401CC0B2082888D3084660
:10101000FFF7BFFA694688736846FFF790FAE6E77C
:1010200010B504460F480078002802D0FFF717FFDC
:1010300044E02046FFF7ADFAA17B88423ED16078BC
:10104000014642390B0005F035F810353935353990
:101050003539393935393909392F35390822E11C03
:101060000E4824E03024002028620200C1FE000067
:101070007372635C424C4568616E646C65722E638A
:1010800000000000A02D00200B0D020048070050BA
:101090008C2C0020EF0200000000000002AB0000DA
:1010A000FF54FFFF842B00200822E11CD14803F0ED
:1010B000AEFD03E000221146FFF716FB002010BD35
:1010C0003EB504460020014668460172204604F001
:1010D000D7FD82B2214602A87CDF002804D0FF2180
:1010E000C54A9331FFF7D0F8002078DF002804D0FC
:1010F000FF21C14A9731FFF7C7F80020009028224E
:10110000694601900A807D224A808880FF209130C4
:10111000C88068467ADF002804D0FF21B64AA13192
:10112000FFF7B2F8042077DF002804D0FF21B24A8D
:10113000A431FFF7A9F83EBD10B5FFF7C1FF00F0DD
:10114000EFF9FFF7A1FE10BD10B574DF002804D041
:10115000FF21A94AD231FFF797F80220FFF792FD4D
:1011600010BDA649C860704710B5A34AA449FFF74F
:101170008BF810BD10B5006800280AD19F483B21AC
:10118000008976DF002804D09D499B4A1631FFF77D
:101190007BF810BD00B587B01C21684604F0F1FD56
:1011A000974900203E310191A021029100900A222E
:1011B00069460A73C881087492480590924806905F
:1011C000684602F050FC002804D08D498A4A0A394A
:1011D000FFF75AF807B000BD704710B596B0044647
:1011E0004021684604F0CDFD88A108A800F088FFE2
:1011F00001200146103108A801770020014608A807
:101200004177684601F00DFC002804D07C497A4AF9
:101210003E31FFF739F800F07DFF7E48448001F051
:1012200045F8142110A804F0ACFD0120014610314E
:1012300010A8417301200146103110A881730120CC
:101240000146103110A8C17301200146103110A8C9
:10125000017471481090002110A80171129101468B
:101260006C482C3801F065FD002804D06449624ABE
:101270005A31FFF709F816B010BD60491E201C3125
:101280000880887801221043E12210400C30DF22D0
:10129000104088700720C87010200871704710B582
:1012A0000868012801D0022010BD48685B498842C7
:1012B00001D1032010BD01F09BFA012010BD00B543
:1012C0008BB02821684604F05CFD002000900321CB
:1012D0006846818101200146103168460171012074
:1012E000014610316846817201200146103168467E
:1012F00041720120014610316846C171022181739B
:10130000474804903D480121143005906846017615
:101310000C200A900AA80890103108A841713D4895
:101320006946F43801F003FA002804D03449324AFF
:10133000A431FEF7A9FF0BB000BD10B50868012865
:1013400001D0022010BD48683449884201D10320F1
:1013500010BD00F019FE012010BD00B58DB02C218C
:10136000684604F00EFD00200090401C02070C218E
:10137000120F0391103268460271012002461032AA
:10138000684682720120024610326846427201208D
:10139000024610326846C27102220274214805904A
:1013A0001648012218300690684602770BA80B9168
:1013B00009901146103108A84172164869469038C4
:1013C00000F081FD002804D019210B4A4901FEF7E5
:1013D0005BFF0DB000BD08B513480090684602F0F1
:1013E00011F8002804D00649034AF031FEF74CFFFB
:1013F00008BD000022AB0000701002003024002065
:10140000410200007511020069110200332E312ED5
:1014100031310000B42D0020D9110200FFFF00007F
:101420009F1202003B1302006B32020008B50368F2
:10143000002B0FD02349012B12D0022B10D0032BED
:1014400003D10868002800D0804708BD68460078AE
:10145000FFF772F9684603F01EFB0028F6D008BDBE
:10146000184A121D1360406888601068886803F08D
:1014700024FB15490020086008BD12490860704728
:1014800000B5124B8BB00FCB049301AB07C3002008
:10149000694688840E48059080308021079009A80D
:1014A00006910891009003230A4A05A901A803F0B8
:1014B00024FA002803D008A25A21FEF7E5FE0BB05B
:1014C00000BD00005424002080240040346202004B
:1014D0000E2E00202D1402007372635C554152548D
:1014E00068616E646C65722E6300000010B50321A4
:1014F000082000F024F80321092000F020F803213F
:101500000A2000F01CF803210B2000F018F810BD91
:1015100010B5FFF7EBFF0D4800694005400F10BD07
:1015200010B5FFF7F5FF0A494000085A10BD10B585
:10153000FFF7EEFF064980002039085810BD054A24
:10154000890080008018016070470000000500508D
:101550006462020000070050FD484178052904D963
:1015600000210170C18001817047491C41707047A2
:1015700038B50446F74A0121684602F0ACFE00285F
:1015800003D0F5A28621FEF77FFE01210022490249
:10159000009802F0E7FE002803D0EFA28A21FEF7B0
:1015A00073FEEB48447138BD7FB54E246946E84D63
:1015B0004C706879FEF7BCFF69468870687940070F
:1015C000400F05280FD1042008704C70DC22CA702F
:1015D0000871022048710846FEF7DBFF69468873F0
:1015E0006846FEF7ACFF6846FEF7D3FF694688738E
:1015F0006846FEF7A4FF7FBDF0B5D54C85B0022646
:10160000E661002525714E2769464F706079FEF727
:101610008FFF6946887060794007400F042806D024
:10162000052815D0062802D0072823D11BE0092160
:10163000684601701021C170E1890A0A0271417186
:10164000AA218171FF21C17105724572857208E07E
:101650000421684601704770DC22C27001710121CB
:101660004171E66106E0032008702322CA706322FC
:101670000A71E0616846FEF78CFF69468873684628
:10168000FEF75DFF05B0F0BDF8B5B14D04466879D1
:10169000002641072846490F4089671C009004290D
:1016A0000ED005295FD006290AD007295AD1E7783C
:1016B000082F75D075DC012F74D0022F73D1B1E0E3
:1016C000E07800280DD0012837D003284AD108201F
:1016D0002056A881787A397A0002084340BAE88116
:1016E0003FE0E869022801D1FFF786FF2079C14376
:1016F0000906C917491CE970410608D52979490628
:1017000005D4810602D40121E96100E0EE61602187
:101710000140297140076179400D08432881A07973
:10172000E1798007800D0843E880607A217A000221
:10173000084340BAA861A07A43E0A079E1790004A7
:1017400009020843217A084368610099814203D065
:10175000874904F029FB6981607AA17A0002401868
:1017600028826E70F8BDE869022801D1FFF71CFFDE
:10177000E078AD283DD0DD28F4D12079012813D0C0
:10178000022820D0032828D00428EBD1A079E179C1
:1017900000024018A8816079802821D9EE6126E0F6
:1017A0005EE034E038E045E0F879B97900020843BA
:1017B00040BA2881787939790002084340BAE88034
:1017C000607A2870CDE7601D04F0DDFA00BA000AE7
:1017D000217A00020843A861C3E7E079A870C0E756
:1017E000032804D12979032901D20121E961287153
:1017F000B7E720790128B5D1E01D04F0C4FA00BA9A
:10180000000AA17A000208436861698921E0162F65
:1018100030D0222F0ED135E0A079E17900024018B6
:10182000288106E02079617900024018E880A079DB
:1018300028706E70AD2F95D12079012892D1E01DCE
:1018400004F0A1FA00BA000AA17A00020843686114
:101850000099814285D0474904F0A6FA698180E762
:10186000201D04F090FA00BA000AE1790002084352
:10187000A861DEE7E079A87020796179000240185C
:101880002882D6E7E869032804D12079062801D107
:101890000220E861E079217A00024018A881A0794D
:1018A0000D2804D00A28C4D30120E861C1E7EE6105
:1018B000BFE72748C088704725482F49407940072F
:1018C000000F085A70472248808970477FB5204C26
:1018D00005466079FEF72CFE694688706079092319
:1018E0004107490F4E262A0AE8B204291ED00529CD
:1018F00044D006291AD0072917D1E288642A00D2D9
:101900000025FFF7D9FF4243E388FFF7D5FF4343A4
:10191000E12040014543D00F801840101946281897
:1019200004F042FA80B200F0EBF87FBD69460B701C
:101930004E701023CB70E3891D0A0D714B71AA23E1
:101940008B717E23CB71237B0B724A7223E00000E4
:1019500060240020591502007372635C4272616B4F
:1019600065446174614465636F64652E63000000C3
:10197000A0860100102700008462020069460B70F7
:101980004E70DC23CB7001230B714B718A71C871CF
:1019900000200872487288720846FEF7FAFD694610
:1019A00088736846FEF7CBFD7FBDFFB585B0044662
:1019B0000F98642143431846323004F0F5F99C4FE8
:1019C000C5B2787904904007400F042805D0052857
:1019D00049D0062801D0072843D10699204648431C
:1019E00094494843944940184E00314604F0E6F9C2
:1019F000049007990A204143F88808186421484355
:101A0000242104F0DBF900B27700002808DA404313
:101A100068438019394604F0D1F904990D1A07E09A
:101A2000404368438019394604F0C8F904994518C1
:101A30000E98394644437F484443A01904F0B4F952
:101A4000421900D50022FFF737FF0346FFF734FFA6
:101A5000400851004018194604F0B0F980B200F077
:101A60004FF809B0F0BD7D210798C90048432421F3
:101A700004F0A4F906460920694608704E20487013
:101A80000498FEF755FD69468870DC27CF70022068
:101A900008710A204543680A487168088871301245
:101AA000C8710E7200254D728D720846FEF771FDE9
:101AB000694688736846FEF742FD0920694608704A
:101AC0004E2048705A484079FEF732FD69468870CA
:101AD000CF70012008714D710A21069804F06EF94B
:101AE000021269468A71C8710C724D728D72684615
:101AF000FEF74FFD694688736846FEF720FDB0E7A4
:101B000070B586B00446C82800D9C824FFF7D4FEB3
:101B100060430A30142104F047F9454D68826A7920
:101B20005007400F042831D005281DD006282DD09D
:101B3000072817D10420694608724E2048721046C3
:101B4000FEF7F6FC694688720120C872688A020AAC
:101B50000A73487302A8FEF71CFD6946887502A83F
:101B6000FEF7EDFC06B070BDFFF7A6FE7D21C900B3
:101B70004843324904F018F9C6B2002000900346E9
:101B80000246019021B23046FFF70FFFFFF794FEA7
:101B9000E98860434843E1216430490104F00EF9CB
:101BA00080B2FFF793FEDDE7214880697047204946
:101BB000886170471E48007870471D48C1880A290F
:101BC00001D9008970470020704719488078704714
:101BD0001748408970471648194940794007400F17
:101BE000085C0A214843704711481549407940076D
:101BF000000F2031085A70470D48C06970470C48E3
:101C0000008A70470A490E4A4879098A4007000F3E
:101C10003032105A084070470548C0787047044871
:101C2000074940794007400F0831085C70470000C1
:101C300060240020D503000088130000AC070000DA
:101C40007462020038B505460C46243001F0D3FA20
:101C50002088102818D0112818D0502819D1A41D78
:101C600021886A892846914213D1218B022910D1FB
:101C7000016800290DD0E17EA27E09021143C90747
:101C8000C90F07D0002106E0A08801E00020C04372
:101C9000E88338BD0121009102686946904738BD4C
:101CA00070B50D4614463020114600F070F9064616
:101CB000FFF783FFA11900F06AF98019C6B2A119D4
:101CC000686800F069F98019C6B2A119288900F086
:101CD0005EF98019C6B2A119688900F058F9801917
:101CE000C6B2A119A88900F052F98019C0B270BD1E
:101CF00070B500240546601C98B00007000F08AAC4
:101D000010300D94107508795075907DF92630408B
:101D1000801C90751C2106A804F033F86A46107EDA
:101D20001021084310760DA807940B9009940A948B
:101D3000012108AA0C949176DF486A46108700209A
:101D4000059410755075907DE7223040801C10403E
:101D500008436A4690751421684604F012F80EA8EC
:101D6000009005A801900FAA14A92846FFF798FF34
:101D70006A4610811420548190810FA80490A8888D
:101D8000AB1D06A9A2DF18B070BD30B50446C08BEC
:101D9000CA4A8BB090421FD006AA2046FFF780FFA8
:101DA0006946054608800020019002900390049047
:101DB000E2888A8001228A71088106A80391049032
:101DC000E08B01A9A6DF002804D169460988A94251
:101DD00000D00C200BB030BD0820FBE7FEB5054657
:101DE000FFF767FD0646FFF7DFFE01218902B44CCD
:101DF0000191218980B28142218909D90022D243EF
:101E0000511A09186422514362898918643104E027
:101E1000411A642251436289891861812081D52148
:101E2000608903F0C1FFC7B2D52061897843081AE1
:101E30006081E0683221C019E0600090A1487143E0
:101E4000784340186421714303F0AEFF21884018A5
:101E500080B201212080002F01D0297001E00022F2
:101E60002A702881009868606970FFF7A3FE064613
:101E700006214E437D20C0007D217043C90003F040
:101E800093FFE1884018FF2180B2693103F08CFF95
:101E9000628880186080E1806881701A8002314613
:101EA00003F08CFF0146A0880918A9810199401808
:101EB000A080FEBD1FB56846FFF790FF69468248C7
:101EC000FFF763FF1FBD30B5054689B0086828607D
:101ED0000020C043E883C8680C4628620121684698
:101EE00081767A4901832A1D06A90120A0DF0028F6
:101EF00048D121462846FFF7FBFE002842D1214663
:101F0000284600F052F800283CD1606A002805D02D
:101F10002146284600F08AF8002833D1206A05902F
:101F2000217F68460174217CC17060690290A069BC
:101F300003900322E11D684603F0C4FEE98A684667
:101F40004182A988818028466946243001F04AF8F8
:101F50005F4A012107A802F0BEF9002804D0FF2142
:101F60005CA2A231FEF790F90121002289020798B4
:101F700002F0F8F9002804D0FF2156A2A631FEF79E
:101F800083F9002009B030BD4D49C8607047087022
:101F9000000A4870022070470870020A4A70020C5A
:101FA0008A70000EC8700420704770B590B00E465D
:101FB00005461C21684603F0E4FE6A4610780221BB
:101FC00008431070002401940394049405940120A4
:101FD00008AA0694907038486A46801C10840794BA
:101FE000B07A10775477907FF9210840801CE72160
:101FF0000840400840009077142109A803F0C1FE72
:102000000EA9F068FFF7C8FF08A9099107A90A916E
:102010006A469085D48510860EA80D902B46A88818
:102020000E3309AA6946A2DF10B070BD70B590B03A
:102030000D4606461C21684603F0A3FE6A4610784A
:102040000221084310700024019403940494059421
:10205000012008AA0694907017486A46801F1084D1
:1020600029200794405D10772007000F5077907F5C
:10207000F9210840801CE721084040084000907783
:1020800014210AA803F07DFE696A0120002902D00C
:10209000097808AA117108A90A9107A90B91694644
:1020A00008864C86888609A80E903346B088163379
:1020B0000AAAA2DFB8E70000632A0000FFFF0000C1
:1020C0008024002000D07700242D00201818000064
:1020D000B51E02006C69625F626C655C626C655F74
:1020E00073657276696365735C626C655F63702E9D
:1020F000630000000A78027049784170022070473E
:1021000070B504460D46084603F0BAFD20806560B0
:1021100070BD00001FB5D54B6C460FCB0FC400201F
:10212000D34902468300401C0006CA50000EF9D075
:10213000CF496846C91E62DF002801D0404200B284
:1021400004B010BDF0B5002591B007462E46A6E0BC
:10215000304602F005FD04464089798888427DD1E9
:10216000082D7BD200200090401C0007000F69461C
:1021700010300870112048708878F9210840801CC0
:1021800069468870002009900A90207B08A9487150
:10219000A0790871E0896946C8841C2102A803F06F
:1021A000F0FD22890821042002F02AFD69460A7AFE
:1021B000FD21C0070A40800F024369460A72228946
:1021C0000821022002F01CFD69460A7AF721C007A7
:1021D0000A40000F024369460A7222890821012041
:1021E00002F00EFD69460A7AEF21C0070A40C00ED0
:1021F000024369460A7220680390206803F040FD9C
:1022000069460882206803F03BFD69464882002049
:102210000690059008900190401C0007000F079160
:1022200010300871112048718879F9210840801C0C
:10223000E7210840012108436946887114210CA850
:1022400003F09FFD387808A98873A08869468885BF
:102250000BA80C9001A80D90A08800E01DE002F0F2
:10226000ADFC694608870020488714208887002035
:1022700010900A206843C3199E460A33B8880CAAF6
:1022800002A9A2DF002803D0404200B211B0F0BD85
:10229000A18870466D1C4182EDB2761CB6B202F088
:1022A0005BFCB04200D953E70020EFE738B50446A5
:1022B0006F48001F0178002902D00120C04338BDBB
:1022C0006B490C6001210170891EE180407820700B
:1022D0006946887060880880221D0120A0DF0028E0
:1022E00001D000B238BD2046FFF72CFF0028F9DBF3
:1022F0000020C04338BD00207047F1B582B0029E77
:102300000025B61D32E002980088102804D011285C
:1023100005D0502828D109E00298818801E00021E9
:10232000C9435348AA008058C1801DE00024AF0073
:1023300030461A3001904E480A22C1592046504377
:1023400082188A5A33889A420AD11230085A009069
:1023500002F027FC030003D0327E019900989847D1
:10236000641CA4B2082CE6D36D1CEDB24048001FDB
:1023700000788542C7D30020FEBDF0B596463C4AA2
:102380008C460024111F0E781DE0A700D559002DA2
:1023900017D000230A2159431231695A81420CD1C6
:1023A000A0000A2110584B430A33C118604601604F
:1023B000D159704601600120F0BD5B1C9BB2082B17
:1023C000E8D3641CE4B2B442DFD30020C043F0BDC4
:1023D00030B587B00D4669460A806324E44306AAF7
:1023E00001A9FFF7CAFF00281BDB069A210CD08841
:1023F000884219D000200199029003900490059022
:102400000B8869460B8188810120887204910595AB
:10241000D08802A9A6DF0DE0404201E068460088AE
:1024200004B2204607B030BD01982B4600886A46AA
:102430000021A4DF0028F1D0EEE73EB50C46694646
:102440000A8002AA01A9FFF798FF00280ADB019879
:10245000234600886A460021A5DF002801D04042BB
:1024600000B23EBD6320C0433EBD0000B462020026
:102470009424002038B505460C46243000F081FD38
:102480002088102818D0112818D0502819D1A41D40
:1024900021886A892846914213D1218B022910D1C3
:1024A000016800290DD0E17EA27E09021143C9070F
:1024B000C90F07D0002106E0A08801E00020C0433A
:1024C000E88338BD0121009102686946904738BD14
:1024D000F7B500980026008C012714460D46C0076A
:1024E00011D0287800280ED06968012661700A0A88
:1024F000A2700A0CE270090E2171611D288900F09A
:102500007AF9401DC7B20098008C800710D5687812
:1025100000280DD002200643E119688900F06BF90C
:10252000C019C7B2E119A88900F065F9C019C7B28E
:1025300026703846FEBD70B500240546601C98B074
:102540000007000F08AA10300D9410750879507517
:10255000907DF9263040801C90751C2106A803F060
:1025600010FC6A46107E1021084310760DA80794CF
:102570000B9009940A94012108AA0C949176E348DF
:102580006A4610870020059410755075907DE722EB
:102590003040801C104008436A46907514216846FC
:1025A00003F0EFFB0EA8009005A801900FAA14A954
:1025B0002846FFF78DFF6A461081142054819081D0
:1025C0000FA80490A888AB1D06A9A2DF18B070BDA3
:1025D00030B50446C08BCE4A8BB090421FD006AABD
:1025E0002046FFF775FF69460546088000200190E8
:1025F000029003900490E2888A8001228A71088107
:1026000006A803910490E08B01A9A6DF002804D15D
:1026100069460988A94200D00C200BB030BD0820C3
:10262000FBE7FEB50446FFF744F90646FFF7BCFAA0
:1026300001218902B74D0191298980B281422989FE
:1026400009D90022D243511A0918642251436A89D8
:102650008918643104E0411A642251436A89891857
:1026600069812881D521688903F09EFBC7B2D520F6
:1026700069897843081A6881E8683221C019E860DE
:102680000090A5487143784340186421714303F0DA
:102690008BFB29880126401880B22880002F01D0AA
:1026A000267001E000212170208100986060FFF712
:1026B00081FA074606214F437D20C0007D217843E3
:1026C000C90003F071FBE988401880B2FF2168312E
:1026D000E880884201D9667001E000216170FF2125
:1026E000693103F061FB6A8880186880E980608145
:1026F000781A8002394603F061FB0146A888091860
:10270000A18101994018A8806078002802D1207822
:10271000002800D00120FEBD10B58048FFF781FFE2
:10272000002803D07D497E48FFF752FF10BD30B529
:10273000054689B0086828600020C043E88388897E
:102740000C462884012168468176764901832A1D3A
:1027500006A90120A0DF002848D121462846FFF71E
:10276000EAFE002842D12146284600F049F8002818
:102770003CD1206A002805D02146284600F081F887
:10278000002833D1E0690590217E68460174A17B61
:10279000C17020690290606903900322E11D6846C0
:1027A00003F090FAE98A68464182A9888180284628
:1027B0006946243000F0E2FA5B4A012107A801F0E3
:1027C0008AFD002804D0FF2158A2B831FDF75CFD36
:1027D000012100228902079801F0C4FD002804D0DD
:1027E000FF2152A2BC31FDF74FFD002009B030BDE2
:1027F0004849C86070470870000A48700220704756
:1028000070B590B00E4605461C21684603F0B9FA33
:102810006A46107802210843107000240194039442
:1028200004940594012008AA0694907037486A46DB
:10283000401C10840794B07A10775477907FF92168
:102840000840801CE7210840400840009077142190
:1028500009A803F096FAB0890EA9FFF7CCFF08A9E2
:10286000099107A90A916A469085D48510860EA819
:102870000D902B46A8880E3309AA6946A2DF10B036
:1028800070BD70B590B00D4606461C21684603F039
:1028900078FA6A46107802210843107000240194E7
:1028A000039404940594012008AA06949070174894
:1028B0006A46801C108425200794405D107720070D
:1028C000000F5077907FF9210840801CE7210840D5
:1028D00040084000907714210AA803F052FA296AB0
:1028E0000120002902D0097808AA117108A90A91CB
:1028F00007A90B91694608864C86888609A80E9020
:102900003346B08816330AAAA2DFB8E75B2A000074
:10291000FFFF00009824002000D07700102F002037
:10292000C02C002016180000192702006C69625F95
:10293000626C655C626C655F736572766963657312
:102940005C626C655F637363732E630070B50D002A
:10295000044604D195A24B210020FDF795FC002CE4
:1029600004D192A24C210020FDF78EFC2878207023
:1029700069886170090AA170A988E170090A21714A
:10298000E8886071000AA07170BDFFB58FB01E4667
:1029900015460F0004D185A26D210020FDF774FCBF
:1029A000002D04D181A26E210020FDF76DFC1C21B9
:1029B000684603F0E6F9684601780220014368465C
:1029C000017000240194039404940594012108A843
:1029D0000694817068460F990184079431780177D5
:1029E00071784177807FF9210840801CE7210840F9
:1029F0004108490068468177142109A803F0C1F90C
:102A000008A8099007A80A9068468585C4850586A8
:102A10006E480D9709AA69460088189BA2DF13B07B
:102A2000F0BD7FB504460121684681716849818007
:102A3000664A01A90120A0DF00287DD12288254611
:102A40003C35002A09D061482B46801C0090614823
:102A50006168FFF79AFF00287BD12289002A0AD0FB
:102A60005A482B460A3000905A48E168401FFFF749
:102A70008CFF00286DD1228A002A0AD053482B46A9
:102A80001230009053486169001FFFF77EFF002855
:102A90005FD1228B002A0AD04C482B461A30009076
:102AA0004C48E169801EFFF770FF002851D1228C4D
:102AB000002A0AD045482B46223000904548616ADA
:102AC000C01EFFF762FF002843D1228D002A0AD0E2
:102AD0003E482B462A3000903E48E16A401EFFF7F0
:102AE00054FF002835D1216B00290ED002A800F038
:102AF00032F836482B46323000903648082202A978
:102B0000801FFFF742FF002823D1606B00280BD005
:102B10002E492B463A310091027901682D48401C1C
:102B2000FFF733FF002814D1A16B002910D002A8B1
:102B3000FFF70CFF254800E00BE0423000902548ED
:102B40002B46072202A92730FFF71FFF002800D1DC
:102B5000002004B070BD70B50C00054604D113A26E
:102B600033210020FDF790FB002D04D10FA234216A
:102B70000020FDF789FB207828702088FF210902BA
:102B80000840000A6870206809020840000CA8701C
:102B90002068000EE87020792871207A68712089F9
:102BA000000AA871A068000CE87170BD6C69625FD2
:102BB000626C655C626C655F736572766963657390
:102BC0005C626C655F6469732E630000A82400205A
:102BD0000A180000292A000063494000085A634986
:102BE0000880704708B50A88102A18D0112A18D012
:102BF000502A13D1891D088B02280FD1887EC97EE7
:102C000000024018594980B20988884206D1FF2045
:102C10003ADF5A2039DF68463BDF2ADF08BD898862
:102C200001E00021C943418208BDF0B593B0002402
:102C300005460E46099408A80A94447106210171BC
:102C4000272109026846C1841C2102A803F099F8D3
:102C50006846027A02273A4308200243EF210A40DD
:102C60006846027209A80394059006940794089494
:102C7000684687713E4A82800094B27B0270F27B84
:102C800042708078F9221040801CF72210400840E2
:102C9000410849006846817008A8047314210CA8F3
:102CA00003F06FF801A80C9068460D9007874487E1
:102CB00087870BA81090A888AB1D0CAA02A9A2DFD9
:102CC000002834D1B06800282FD0012168468171D6
:102CD000284981800094317C0170002001466846BB
:102CE00041708078F9210840801CE72108404108A4
:102CF00049006846817012A8B168FFF7FBF90646E3
:102D000014210CA803F03DF801A80C9068460D9022
:102D100006874487868712A810902A46E8880E32D4
:102D20000CA9A3DF002802D100E0EC81002013B041
:102D3000F0BD38B50446086820600020C0436082BA
:102D400008790D4620750221684681700A49018084
:102D5000221D69460120A0DF002803D12946204614
:102D6000FFF763FF38BD0000C4620200F2240020B8
:102D700001AC00000829000001A50000F0B50446E0
:102D800000208FB0C043A08100262662087C0D463B
:102D90002075097C002907D0E968002904D0820049
:102DA00020461030FDF7DCF9A8886080A868A06193
:102DB000E8782070688AA083686960620120014613
:102DC000103108A808960170297841708178F92798
:102DD0003940891C81701C2101A802F0D2FF68468D
:102DE00001792820014368460171029608A80496DB
:102DF00005960121079606908171774A684682847C
:102E000000200246684600960270AA7842708278D6
:102E1000F7203A40921C0240102002430A436846C1
:102E2000827014210AA802F0ACFF09A80A90684633
:102E30000B9006861321468681860E966088231D98
:102E40000AAA01A9A2DF0FB0F0BDF0B50446006ADE
:102E500085B0022826D126462036317B684601807F
:102E600000250195029503950495A188818002278C
:102E700087710581039020462D300490A08901A917
:102E8000A6DF5649002802D0411806D10FE0694656
:102E9000307B0988884207D00C202562616A0029AE
:102EA00000D0884705B0F0BD03202062FAE7276212
:102EB000F8E7F0B504464A4889B007680E46022094
:102EC0006946087000258D808882208904AB05AA98
:102ED0002946A5DF002803D0616A002900D0884771
:102EE0006846008A8007C00F21D0206A002804D0DD
:102EF000FF2081306946888001E068468580A0898E
:102F00006946A8DF002803D0616A002900D08847FD
:102F100068468088002832D1022525623046317EFD
:102F20001A3000291CD00778012F19D102E0FF20A8
:102F30008230DFE7461C304602F025FF0102F078C0
:102F4000090A000601432078800709D50125069566
:102F50000791A269002A03D006A92046904705469A
:102F600020462D30102101704770857003212C20E0
:102F70000155206A022802D12046FFF766FF09B0FA
:102F8000F0BD0B880022112B13D005DC012B1ED0C5
:102F9000102B0DD189880EE0512B0ED0532B07D169
:102FA000C9888388994203D1016A032900D102624A
:102FB00070470021C9438181F9E7891D0A78022AF7
:102FC000F6D14A8883889A42F2D1891C71E7016A56
:102FD0000229EDD139E70000552A0000FDCFFFFF9F
:102FE000D4620200F0B5044600208FB0C043A08137
:102FF00000262662087C0D462075097C002907D032
:10300000E968002904D0820020461030FDF7A8F8B6
:10301000A8886080A868A061E8782070688AA0838A
:103020006869606201200146103108A808960170A5
:10303000297841708178F9273940891C81701C21D9
:1030400001A802F09EFE68460179282001436846E7
:103050000171029608A8049605960121079606902C
:1030600081717A4A6846828400200246684600964A
:103070000270AA7842708278F7203A40921C02408F
:10308000102002430A436846827014210AA802F005
:1030900078FE09A80A9068460B900686132146869A
:1030A00081860E966088231D0AAA01A9A2DF0FB0AF
:1030B000F0BDF0B50446006A85B0022826D1264648
:1030C0002036317B684601800025019502950395E5
:1030D0000495A1888180022787710581039020468D
:1030E0002D300490A08901A9A6DF5949002802D0FB
:1030F000411806D10FE06946307B0988884207D025
:103100000C202562616A002900D0884705B0F0BD17
:1031100003202062FAE72762F8E7F0B589B00F468E
:10312000022669460E7000258D808E820446008935
:1031300004AB05AA2946A5DF002803D0616A00294F
:1031400000D088476846008A8007C00F21D0206AD7
:10315000002804D0FF20FF306946888001E06846DF
:103160008580A0896946A8DF002803D0616A00290C
:1031700000D088476846808800283AD126623546C4
:103180003E46387E1A3600281CD03778012F19D1D8
:1031900002E0FF20FE30DFE7761C304602F0F3FD50
:1031A000F1780002000A090608432178890709D549
:1031B000012506950790A269002A03D006A920469A
:1031C0009047054620462D3020210170477003218D
:1031D0008570012D05D1202F03D1AB21C170017164
:1031E00005212C200155206A022802D12046FFF734
:1031F00060FF09B0F0BD0B880022112B13D005DC55
:10320000012B1ED0102B0DD189880EE0512B0ED032
:10321000532B07D1C9888388994203D1016A0329B6
:1032200000D1026270470021C9438181F9E7891DFD
:103230000A78022AF6D14A8883889A42F2D1891CF8
:103240006BE7016A0229EDD133E70000662A00002E
:10325000FDCFFFFFB0498A68904205D08860CA68F8
:10326000002A01D088681047704710B5AA488AB074
:1032700000780C46002812D1052A10D90420FFF747
:10328000E9FFA17868460170802141706278611C75
:10329000D21C801C02F016FD684602F0BCF90AB090
:1032A00010BD07B584B000280DD0828A9B4B9A428E
:1032B0000BD0827D002A08D06A46128B142A06D9C8
:1032C000072007B000BD0E20FBE70820F9E7002229
:1032D000009201920292039282896B461A800391B6
:1032E00006A9029101219970808A6946A6DFE8E764
:1032F0004278092A04D801468748121D4068D0E761
:10330000704770B500240546601C90B00007000FA0
:1033100008A9103008940870601C0007000F1030D6
:1033200048708878F9263040801C88701C2101A8DC
:1033300002F027FD694608791021084369460871A3
:10334000029408A80494059407940690287808A984
:103350008871734869468884112000940870487009
:103360008878E7213040801C0840012630436946B8
:10337000887014210AA802F004FD09A80A90684682
:103380000B9069460E8614204C8688862B466888EA
:103390000C330AAA01A9A2DF10B070BD30B45E4997
:1033A0004B68002B22D0002820D00188102918D08B
:1033B000112918D0502919D1801D01881A8A9142EB
:1033C00002D1028B022A13D09A8891420ED19C69B5
:1033D000002C0BD0028B0146A44630BC1A31184693
:1033E0006047808801E00020C043988230BC70476D
:1033F000C17E827E08021043C007C00F00D00120AA
:103400009875F3E730B5474B05460FCB85B003936E
:103410006B4607C3404C6068002832D0002D30D086
:103420000120FFF717FF00206168C04388822868E9
:10343000886100208875684662DF00281FD16268B5
:103440006846117881743649921C491E018204A98C
:103450000120A0DF002812D129466068FFF751FF44
:1034600000280CD12946606800F016F8002806D123
:103470002D4801F096FE0320FFF7ECFE002005B07A
:1034800030BD0E20FBE72449C860704722488068A1
:10349000704721490870704770B58EB005461C21F1
:1034A000684602F06EFC694608780C2108436946BC
:1034B00008700024019403940494059406942878D9
:1034C00008A9887016486946401C0884601C0007DB
:1034D000000F10300794087711204877887FF92172
:1034E0000840801CE7210840012630436946887760
:1034F000142109A802F045FC08A8099007A80A9021
:1035000069468E851420CC85088668882B1D09AAFB
:10351000A2DF0EB070BD0000F4240020FFFF000009
:10352000C2FE0000E0620200F13202000F490122F7
:103530000878504008704968002900D00847704753
:1035400070B5054609480C464260152027DF002863
:103550000BD12946152028DF002806D1152023DFAE
:10356000002802D12146012049DF70BD042500203A
:10357000FFB507468BB00020149C059026780546C1
:1035800051E07968A80009180A886846828149884C
:10359000C181002202A903A864DF002810D1684677
:1035A000017A0D9881423DD10598002801D0002272
:1035B00000E002222078891841181F2902D90C2026
:1035C0000FB0F0BD0599002908D1401CC0B2431CC2
:1035D0000E9A0C9923701154012005906846807B47
:1035E000022804D0012802D0032809D015E0217850
:1035F0000E980A1802A903A864DF0028E0D10CE0A5
:10360000FE4B0FCB0A9307AB07C321780E9808181F
:1036100069460A7A07A902F055FB69462078097ABB
:10362000401820706D1C3888A842AADC0598002834
:1036300004D020780E99801B401E88550020BFE7DB
:10364000F8B51546069C1E46074602220094FFF771
:103650008FFF002806D133461022294638460094B1
:10366000FFF786FFF8BDF7B582B000260546167055
:1036700000681446002805D02846039900F0DFF8BA
:1036800006002DD1687900281BD02078039F001DEB
:103690001F2824D8684679DF002821D12178032209
:1036A000481C20707A5421781922481C20707A54C2
:1036B0002078C1196846008800F0BCF821784018CD
:1036C00020702989002923D001208446EA680398C4
:1036D000002A07D0227853189B1C1F2B04D90C20DA
:1036E00005B0F0BD0720FBE71346521C491C2270B1
:1036F000C15422786746511C2170875423782A8947
:103700001818E96802F0DEFA2078297A401820704B
:103710002869002815D00021415622788C46D01CFB
:1037200003991F28DBD8501C022320708B54227869
:103730000A23501C20708B5420786246431C23704F
:103740000A54A88A002809D028460094062202219B
:103750001430039BFFF774FF0600C1D1A88B00282B
:1037600009D028460094072203211C30039BFFF751
:1037700067FF0600B4D1A88C002809D02846009421
:10378000152214212430039BFFF75AFF0600A7D10E
:10379000E86A002805D02246039900F085F8060063
:1037A0009ED1286B002805D02246039900F0BBF873
:1037B000060095D13820405D002806D022462846D4
:1037C000039900F0E2F806008AD1304688E770B528
:1037D0000D4692B000216A4611700724117100282D
:1037E00012D00189002905D0C168002902D00978CA
:1037F000490702D4204612B070BD02A9FFF733FF7B
:103800000028F8D102AE00E00026002D0BD0288958
:103810000028EFD101AA0AA92846FFF724FF0028B3
:10382000E9D10AAA00E0002268460379017830460F
:1038300072DFE0E70870000A487002207047F8B5B0
:1038400014780746A01C15460E461F2803D8387961
:10385000801C1F2801D90C20F8BD1D20001B80B240
:103860006946864608803019801C7DDF0028F3D128
:103870003868022805D168460088704501D80921BA
:1038800007E038790821002801D0704501D9684641
:103890000088421C3255641CE2B2B1542978801C65
:1038A000081828700020F8BDF8B50D4611780646B6
:1038B000881D14461F2801D90C20F8BD3388072025
:1038C000062BFAD31927FF01BB4202D94C4A934277
:1038D000F3D17288062AF0D3BA4202D9484FBA42CD
:1038E000EBD1474FBB4203D0BA4201D09342E4D858
:1038F000481C052220706A5420781222411C217035
:103900002A54207841193088FFF794FF2178401815
:10391000C0B2207041197088FFF78CFF21784018E1
:1039200020700020F8BD70B5054600790E46801C59
:103930001446C0B21178821C8A181F2A01D90C20A3
:1039400070BD0A46491C401C2170B0542078FF22EB
:10395000411C21703254207881192888FFF76AFFB2
:1039600021784018C0B22070AA88002A09D0A9681E
:10397000002908D0801902F0A5F92078297940188B
:103980002070002070BD072070BDF7B582B002988E
:103990001446406B0F46002837D00298002520308F
:1039A000009028E00298416B0C2068430E182178A3
:1039B00030794A1CC01C2270785421781622481C89
:1039C00020707A542078C1193088FFF733FF2178AE
:1039D0004018C0B22070B288002A09D0B16800290E
:1039E00013D0C01902F06EF9207831794018207098
:1039F0006D1C0098EDB2007EA84203E0F062020068
:103A0000FFFF0000CED800206AE6072068E600002D
:103A100038B57A497A4A488890420FD04A78794C2A
:103A2000521CD2B24A70237B934208D3083175DF0F
:103A3000002803D0A169002900D0884738BD00259F
:103A40004D70217C002907D03B2176DF002803D070
:103A5000A169002900D0884761690029EED0684635
:103A60000095884738BD70B5054601461C2265485B
:103A7000FCF776FB614C002626702968002907D0E8
:103A80000822A01802F01EF9204608307ADF02E072
:103A90005A4808307BDF002808D1401E6080574814
:103AA0006670594A0021001D00F015FC70BD10B56C
:103AB0005248406800F0AEFC10BDF8B54F481030D9
:103AC00000F08EF800264D4D4E4C002806D061695E
:103AD000002919D001200090684614E028780028B9
:103AE00004D0616900290FD00096F5E768780028B6
:103AF0000CD0A1680022686800F034FC002803D0D4
:103B0000A169002900D088472E70F8BD6168F1E7EF
:103B1000F8B53C4C02880027384DE689102A18D0A9
:103B200029464968112A21D0122A2DD0502A0FD1B6
:103B3000801D0288B2420BD1028B022A08D1C27EBC
:103B4000837E10021843C007C00F13D0FFF7B5FFE4
:103B5000F8BD818869800146284808220E3110305E
:103B600002F0B0F86F70002EF0D0F8BD0020C04316
:103B700068806F70084600F04DFC0028F5D0A16900
:103B80000029F2D08847F8BD811D1C48082210305A
:103B900002F098F8DAE7F8B501461848082208302C
:103BA00002F090F8154808307ADF04000DD1134870
:103BB000103000F015F80125002808D0114841699F
:103BC000002902D06846009588472046F8BD0B4E74
:103BD000357031460831708875DF04467570F4E73A
:103BE0004188064808300288914204D340888142C7
:103BF00001D8012070470020704700000C250020EC
:103C0000FFFF00003C2F0020113A020010B50846CB
:103C10001146FCF745FB10BDF8B54F4C2078002845
:103C200052D0606900280BD00027E068002809D036
:103C300000252069002807D00026002F06D015E0B7
:103C40000127F2E70125F4E70126F6E768464EDF93
:103C5000052806D0002806D040A26921FCF714FBF5
:103C600004E0012702E0616900988847002D12D125
:103C7000608869460880A06860DF052806D00028B3
:103C800006D036A28021FCF7FFFA04E0012502E00D
:103C9000E168A0688847002E11D1A068821C411CF1
:103CA000C1DF052806D0002806D02CA29821FCF7F9
:103CB000EBFA04E0012602E02169A0688847002FA2
:103CC000C4D028463042B8D0F8BD70B5002901D024
:103CD0008C0701D0072070BD1F4C0125A1606280B8
:103CE0002649636010DF0028F5D12570162023DFF8
:103CF00070BD11DF002801D0012100E00021164A2B
:103D000011707047002803D01349C8600020704725
:103D10000E207047002803D00F490861002070472B
:103D20000E207047002803D00B49486100207047DF
:103D30000E20704710B508484068002808D080471A
:103D4000002804D0FF2105A23331FCF79DFA10BDF5
:103D5000FFF762FF10BD0000242500206C69625F40
:103D6000626C655C736F66746465766963655F68D1
:103D7000616E646C65722E63000000000D3C0200F1
:103D8000F8B59048006900908F490020C86303256A
:103D900004462D0437E01421426861438B18012248
:103DA0008068A24002422CD0D868C24300984240AA
:103DB00018680240002001268640114631420FD08B
:103DC000DF683946314223D02946B743DF607F4E52
:103DD0008700BE193768AF43376037680F433760D5
:103DE000401C2028E7D30098996816468643314046
:103DF000009E58681640304002460A4301D01A69B6
:103E00009047641CE4B2724841788C42C3D3F8BD39
:103E1000012149043743D9E7F0B56D4A00215368C1
:103E2000142250430124694D03273F041E582246A3
:103E30008A40164206D08A0052191668BE431660A0
:103E400016681660491C2029F0D3F0BD10B5002972
:103E500003D08A070024002A01D0072010BD5C4A45
:103E60000B46516010701421547041431846946001
:103E700001F087FF00205749C04388605648402121
:103E80000160564A1068FF231B0498430B04184333
:103E9000106053480160002010BDF8B54C4F8446B7
:103EA0007D68002D07D0002B07D078783C78A042A1
:103EB00005D30420F8BD0820F8BD0720F8BD0E4644
:103EC0001424164344432E5164192361A260616097
:103ED00061460870411C7970FFF79EFF0020F8BD15
:103EE000F0B53B4A5168002904D05378984203D377
:103EF0000720F0BD0820F0BD334B0025DD63314BBA
:103F00001C699768002F02D1324EDB0573600126D1
:103F100086403E439660142250434218D5600022EA
:103F200001230D5893401D4216D025461D4202D054
:103F300003252D0405E001256D044618F7681F438D
:103F4000F760224B9600F3181E6803273F04BE4318
:103F50001E601E682E431E60521C202AE0D30020E3
:103F6000F0BD70B51A4C05466068002804D0607832
:103F7000854203D3072070BD082070BD2846FFF797
:103F80004BFF0121A068A9408843A06003D1012014
:103F90001049C0078860002070BD0D4B5A68002A88
:103FA00004D05B78984203D30720704708207047FD
:103FB000142358438018034A126900680240002005
:103FC0000A60704700050050406100400007005043
:103FD0003C2500200063004080E200E004E400E0B3
:103FE00000E100E08307FF22DB0E9A408907090EFB
:103FF000994000280BDA0007000F08388308F848BA
:104000009B001B18D86990430843D8617047830808
:10401000F4489B001B1818689043084318607047C9
:10402000F0B5F14F28217C6841430D19F9684A1C0D
:1040300009D028224A431619AB68B268934204D8C3
:10404000D21AB2606962F860F0BD0A4602E00A4620
:10405000796A9B1B4E1C0BD028264E433719BE682D
:104060009E42F4D328264E433619B768FF1AB7602C
:10407000AB60696228214A4311194862F0BDF8B566
:10408000D94CE568681C36D0D848002640682169BC
:10409000401A07023F0A1AE02820454360682A18A0
:1040A0009068B84215D863693F1A8619556A002B83
:1040B0000AD0116AD0699847002808D0FF21CCA205
:1040C0005531FCF7E1F802E0D169106A8847681CB5
:1040D000E2D1A178E078814206D1401CC0B2E07004
:1040E000022801D10020E070BF490006800D183180
:1040F0000E5000F0F2F9F8BDF8B50446BA48C168B0
:104100000091467856E0B848F10082688D184BE07F
:10411000601C07D0B44A28215268614320468918A0
:104120004C6A20E02878182141436A68401CC0B2DC
:1041300052182870A978884201D100202870AA4B13
:10414000506828215B684143C9181368012B2DD1A1
:104150000B7E002B2AD19368CB60D3680B61136967
:104160004B6152690A62A04ACF681369BC46FA1AC9
:104170001202A44F120ABA4202D20B69D21809E005
:1041800062469A1A12020B69120A934201D99A1ACC
:1041900000E000228A600022CA600A6101220A76D9
:1041A000921E4A62FFF73CFF601CB1D12878697803
:1041B0008842ADD13046761EF6B20028A3D18A4897
:1041C000C1680098814201D00120F8BD0020F8BDEF
:1041D0008D490020086048608860C8608A4940397D
:1041E000086048604BE7F0B5002087B0C0430290FC
:1041F0007D480669C568684600F075F9074600F015
:104200008FF90446002F08D002AA3146009800F02A
:10421000CFF90298FFF770FF06E00298FFF76CFFF6
:10422000002801D1002C02D0284600F0EAF907B09E
:10423000F0BDFFB59807002481B01E4615460F4615
:1042400000280BD1002E09D000F036F966490A98F3
:1042500048610F70324600204E6008E0072005B02C
:10426000F0BD28234343D4509B181C76401CB84211
:10427000F7DB28204743BB19032048700F46184638
:104280008B6019461830002218232E465E43D30057
:104290005B181C705C709D7058603018521C032AAB
:1042A000F5DB0020C043F860BC70FC700124574867
:1042B0002405046003211420FFF794FE5448046091
:1042C0004A4C0198A06003211120FFF78BFE606823
:1042D00038610020C3E770B5434C6568002D06D0F7
:1042E000002A06D0002804D00023247809E0082002
:1042F00070BD072070BD28265E43AE59002E04D045
:104300005B1CA342F7DB042070BD282401265C431C
:104310002E516419E26161600360002070BD304974
:104320004868C005C00D17D0103807D50207120F16
:10433000083A920892005118C96904E08108294A94
:104340008900891809688007C00EC1400806800FDF
:10435000012803D0032803D00220704700207047B3
:1043600001207047FEB504461F48174642680D46B7
:10437000002A0CD001788C4201D2052D01D20720F1
:10438000FEBD2146282359435358012B01D0082054
:10439000FEBD8818406801281DD00026FFF7BFFF2A
:1043A000C0001149019089684018694600F06CF915
:1043B000002812D00121446001600C49496808308E
:1043C000E2C009490198896841180098487000F0D6
:1043D00084F80020FEBD2E46E0E70420FEBD00006C
:1043E00000ED00E000E400E0482500200015014059
:1043F0006C69625F6170705C6170705F74696D653B
:10440000722E6300FFFF7F004011014080E200E058
:1044100000E100E0F8B5BB4D04466868002809D00B
:1044200029788C4201D30720F8BD282161434058E8
:10443000012801D00820F8BDFFF771FFC600A86869
:104440006946301800F020F9002809D0022112C076
:10445000A86831180098487000F03FF80020F8BDB7
:104460000420F8BD38B5A74C6068002815D0FFF7C8
:1044700056FFC500A0686946281800F005F9002815
:104480000DD003210160091F4160A0682918009820
:10449000487000F022F8002038BD082038BD042004
:1044A00038BD99494968016000207047401A0002F0
:1044B000000A10600020704710B50121934A48049B
:1044C0001060934A40109060914A403A9060914841
:1044D00041602F20FBF734FE10BD01208B49000501
:1044E00080310860704710B5864900238A78CC78FF
:1044F000A24212D0521CD2B28A70022A00D18B7012
:104500008A78804B920018339A5802600869101814
:104510000002000A0861012010BD0360002010BDE8
:10452000F8B57848C1680091457833E07548E900EE
:1045300080680E1834782AE0182060437168641C83
:104540000818B178E4B2A14200D100240168022920
:1045500002D003291BD113E06A4A4068282152681F
:1045600041438F18397E002911D000F09FF80020B8
:1045700038760CE028277843C0180276406A03E0BA
:10458000604900224B68C868471CF3D1C860707846
:10459000A042D1D128466D1EEDB20028C6D159489F
:1045A000C1680098814201D00120F8BD0020F8BD0B
:1045B000F7B5544C00256768E3681EE0282159438D
:1045C000C9198E68864202D9301A886017E0801BAC
:1045D000751900268E600E764E699C464B6AB6466B
:1045E000002E0AD0019E76193602360ACE60764633
:1045F0000E6116684E6261461160591CDED1E3609F
:10460000FEBDF8B53F49CA68531C3AD028235A4327
:104610004B68D21896683C4A54680F69401CE11BED
:104620000D022D0AED1C0121002810D1384A080482
:104630005060374A403A5060374A40001060334A71
:10464000803A1060334801602F20FBF779FDB542B6
:1046500000D23546E81900022B49000A40310860B3
:1046600029494968001B091B0902090A0002C91CE3
:10467000000A814204D901202449400480310860A5
:10468000F8BDFFF719FFF8BD42788378521C9342BA
:1046900000D100220378934201D1002070470A60C4
:1046A00041684078182250430818704770B5154D7E
:1046B000EA686B681446114606E0814207D00A4654
:1046C00028267143C918496A4E1CF6D170BD002EC8
:1046D000FCD08A4204D128204443E018406AE860B4
:1046E00028204143C818282481686243406AD218B0
:1046F0005062421CEAD028225043C01882685118E8
:10470000816070BD482500200015014080E100E077
:10471000401301400010014080E200E0002906D073
:10472000002A02D0531E134203D0092070470E20E6
:104730007047016083800021C18001810846704775
:104740000289C388D31A8288934208DC0389134004
:104750000268D1540189491C01810020704704205E
:1047600070470289C3889A420AD0C28883881A4057
:1047700003689A5C0A70C188491CC1800020704798
:104780000520704700210181C18008467047000064
:104790001CB5E3490120C860E2494860032000904D
:1047A000C968684688471CBD38B5DE4C6068022879
:1047B00002D0DB49012088606946DB48FFF7D1FF62
:1047C000002802D0FFF7E4FF38BDD848802181607F
:1047D0006A46D74B1278DA6102226260416038BDC6
:1047E00010B5D14ACF49030001F064FC05040B3138
:1047F00020271200486801281FD0022808D1032072
:1048000005E04868002804D0032801D10220486050
:1048100010BDC74B04201860C14B012018601389DC
:10482000D2889342F3D0FFF7BFFF10BD486801283C
:1048300006D0022804D00328F7D100F067F910BD94
:104840001089D1888842EED1FFF7A2FF10BD4868D9
:104850000128E8D010BDF8B50546B24E0C46084612
:10486000B1682840084208D069467078FFF795FB88
:1048700000280CD1009805408443B068044201D060
:10488000012002E0054202D00020FFF7A9FFF8BD99
:104890007CB5A84CA068A34E0025002817D0A560C1
:1048A000A3488069C1B2A0480C38FFF749FF00282F
:1048B00003D001210091019006E09B480C3801894A
:1048C000C088814203D10095F16868468847E06955
:1048D000002803D0E5610320FFF782FF606A00280B
:1048E0000AD0656292498039086808600221009107
:1048F0000190F168684688477CBDFFB581B00446E9
:10490000884D00200A9E0F466860EA60002957D053
:10491000B889B96882B28448FFF700FF002850D1F7
:10492000B888396882B280480C38FFF7F7FE002853
:1049300047D16078012182007F48121811602378E6
:1049400000229B001818026079486378C3602378BE
:104950004361E3684362764B277A4033002F02D0ED
:104960000E27DF6200E0DA626768022F05D0012FB0
:104970004FD03488002C60D063E0A27801219700EA
:104980006D4ABA181160A2780F4697406B4A57607B
:104990008A1E0261A2788260D86A0843D862E078F1
:1049A0000A468240AA608300032263481204181852
:1049B0000260E07881403088002804D0FF280FD2C0
:1049C000072005B0F0BD57485D4B0A46401CFFF775
:1049D00064FA0028F5D168780002FF30308001E0E9
:1049E000000A687069466878FFF7D7FA0028E8D1AE
:1049F0006878FFF775FA0028E3D1E1780120884054
:104A00000099084203D00020FFF7EAFE2AE00120C7
:104A1000FAE73788002F03D12F7837807F1C2F705B
:104A200004260660434EB260F261DA6A0A43DA6233
:104A3000E2780261A278826010E02C783480641CF5
:104A40002C70042404603B4CA260E261DA6A5208D4
:104A50005200DA620022D2438260026130488160F3
:104A60000160696000213148C9438160A12189004A
:104A70004160344904200860334B04991A68FF24CC
:104A800024048907090EA24309040A431A602F4926
:104A90000860002095E70146234810B50C38FFF761
:104AA00060FE10BD10B501461F48FFF749FE0446E1
:104AB0000220FFF795FE204610BD1B4810B50C38AC
:104AC000FFF760FE002802D11748FFF75BFE10BD1C
:104AD00014494968002900D0012101600020704775
:104AE00010B5FF2804D20420FFF77AFE002010BD85
:104AF0000C4C000A6178884201D0072010BD0420C8
:104B0000FFF76EFE6078FFF72CFA10BD0549002014
:104B1000486003490122CA604A600549086070473D
:104B20000020004068250020642F00200023004062
:104B30000025004000210040000700500005005003
:104B40005748020080E200E000E400E000E100E0FD
:104B500000207047002070473148008880B27047BD
:104B60002F490968884204D2142148432D4940182E
:104B700070470020704710B503460022284C0AE019
:104B800090B2FFF7EDFF002808D08088984201D14D
:104B9000104610BD521C20688242F1D30020C04351
:104BA00010BD00B5FFF7E7FF00B2002804DB80B2BC
:104BB000FFF7D6FF006900BD002000BD00B5FFF77C
:104BC000DAFF00B2002811DB80B2FFF7C9FF80795D
:104BD000030001F06FFA11120A0A0A0A0C0C0E0EF9
:104BE0001210120A0C0C0E0E1200012000BD022041
:104BF00000BD042000BD082000BD7C20C04300BDD6
:104C0000CA40024201D0012070470020704710B511
:104C1000FBF786FC10BD10B5FBF786FC10BD00004D
:104C2000DC600200E0600200F8B5FCF7BDFF06465C
:104C3000FCF73FFE904C0546A088B04209D9002100
:104C4000C943081A801964214843E1884018643038
:104C500004E0301A64214843E1884018E08080B2C3
:104C6000A680D521074601F09FF8C6B2D520704333
:104C7000381AE080FCF71DFE002811D0002E0CD061
:104C80007E483221704369434018294664225143CB
:104C900001F08AF82169401820616069801960611B
:104CA0007548218A18300171090A4171A18A817100
:104CB000090AC171F8BD08B571490120CCDF00288F
:104CC00003D070A2BA21FBF7DFFA69460420E7DFC0
:104CD000694608788007800F08700AD100230122F6
:104CE00010210420C2DF002803D066A2C521FBF7F3
:104CF000CBFA0123792264210420D3DF002803D0DA
:104D000060A2CD21FBF7C0FA39210420CDDF0028B5
:104D100003D05CA2D121FBF7B7FA60490420D1DFB0
:104D2000002803D057A2D521FBF7AEFA00220421B8
:104D30000846CFDF002803D052A2D921FBF7A4FAFE
:104D40000420C4DF002803D04EA2DD21FBF79CFA2B
:104D500008BD08B5524A01216846FFF7BCFA002891
:104D600003D048A2EA21FBF78FFA00224D490098B0
:104D7000FFF7F8FA002803D042A2ED21FBF784FAEE
:104D8000FCF712FF3C49888008460A8918300270F7
:104D9000120A42708A898270120AC2700A8A0271EB
:104DA000120A4271898A8171090AC171FFF783FF72
:104DB000314A082118320420C7DF08BD4078032893
:104DC00005D0052803D0062801D0002070472A4AC4
:104DD000082118320420C7DF274A002111707047CC
:104DE00010B50446FFF720FF204600F015F8FCF749
:104DF000EFFE214C618888420DD0FCF7E9FE81B2BC
:104E00000123792261800420D3DF002803D01DA272
:104E1000AF21FBF739FA10BD10B5FCF7CBFE164CED
:104E200000280DD0FCF7C6FE01460F20000300F05D
:104E3000BBFFA1684018A060E068401CE06002E091
:104E4000A068401CA0600C48218918300170090A34
:104E50004170A1898170090AC1702078401C2070BE
:104E60002078052806D9044A082118320420C7DF13
:104E70000020207010BD00007825002000D07700B1
:104E8000006302006C69625F616E745C616E745FE6
:104E90007370646361642E6300000000961F00005D
:104EA000E14D0200BB02000010B50122974CFF212A
:104EB000012828D0502816D0512813D120706170B5
:104EC000A2700B20E070FCF783FE2071FCF780FEDF
:104ED000000A6071FCF77CFE000CA071FCF778FE04
:104EE000000EE07110BD502020706170A170E27062
:104EF0005920207100206071FCF776FEA071FCF74C
:104F000073FE000AEDE7814822700A38407860702D
:104F1000A170E17021716171A171E17110BD08B5DD
:104F20007B490120CCDF002803D07AA2B421FBF713
:104F3000ABF969460320E7DF694608788007800FF0
:104F400008700AD10023012210210320C2DF0028AB
:104F500003D070A2BF21FBF797F905230B22642130
:104F60000320D3DF002803D06AA2C721FBF78CF906
:104F700039210320CDDF002803D066A2CB21FBF727
:104F800083F969490320D1DF002803D061A2CF2132
:104F9000FBF77AF9002204210320CFDF002803D099
:104FA0005CA2D321FBF770F90320C4DF002803D0F3
:104FB00058A2D721FBF768F908BD08B55B4A012163
:104FC0006846FFF788F9002803D052A2E521FBF7D5
:104FD0005BF900227F210098FFF7C4F9002803D075
:104FE0004CA2E921FBF750F9484910200870FFF75F
:104FF00096FF0821454A0320C7DF08BD8079AA280B
:1050000003D14249AF200A3948700020704700B5EB
:10501000C1784E2903D04F2901D0502904D14179BC
:10502000012901D1FFF7EAFF002000BD41780329E3
:1050300007D0052905D0062903D080290AD00020F1
:1050400070470821314A0320C7DF304A00210A3A5D
:1050500091707047DBE770B52C4C00250A3C208925
:10506000401C80B22081882800D3258120890146F8
:105070004039042901D2502002E0842803D3512072
:10508000FFF712FF22E06078002804D00120FFF72C
:105090000BFF65701AE01D4E102030702078707084
:1050A000401C2070FF20B070FCF784FDF070FCF70E
:1050B00084FDE1884018E0803071000A7071FCF7CF
:1050C0007CFDB071FCF779FD000AF071A078401CFE
:1050D000A070A078052804D908210C4A0320C7DF56
:1050E000A570FCF775FDA18888420DD0FCF770FD16
:1050F00081B205230B22A1800320D3DF002803D037
:1051000004A2A821FBF7C0F870BD0000A225002072
:10511000086302006C69625F616E745C616E745F4B
:105120007077722E63000000F61F000057500200D7
:105130001FB504464E2801D04F2C23D1A421684628
:1051400001700921417084700521C170FE496A46D1
:10515000886AC96A02910190002168460173084675
:10516000135C117B401C5940C0B211730C28F7D35B
:10517000F548016A002901D0104688474E2C04D01A
:105180004F2C08D0F14804B010BDEF4A0821283256
:105190000520C7DFF7E7EC4A082128320520C8DFE1
:1051A000F1E7E9490862704770B5FCF706FDE64D86
:1051B000A9892C464018A881192028342070287805
:1051C0006070401C2870FCF7F5FCA070A889E070A6
:1051D000000A2071FCF7F1FC6071FCF7EEFCA97885
:1051E00000050909000F09014018A071FCF714FD22
:1051F000002800D00320E07100F0AAFA0009E1794C
:1052000000014018E07170BDCF4A47232832137067
:10521000131F1B7853709070D170FF201071507164
:105220009071D071704710B5C74C51202834207050
:10523000FF2060700120A0700B20E070FCF7C8FC1C
:105240002071FCF7C5FC000A6071FCF7C1FC000C82
:10525000A071FCF7BDFC000EE07110BD10B5BA4C9A
:10526000502028342070FF206070A0700120E07072
:105270005920207100206071FCF7B6FCA071FCF78A
:10528000B3FC000AE07110BD10B5AF4CF02028341B
:10529000207000206070A070E07020716071FCF7D9
:1052A000AEFCA071FCF7ABFC000AE07110BDFEB5CE
:1052B00000F04EFAA44C302802D16078401C607097
:1052C000208A401C80B220820027842800D32782B5
:1052D000208A9F4E622829D006DC202826D040282C
:1052E0007DD0412804D17AE082287BD0832879D0F0
:1052F000FCF788FC002805D00321208A00F054FD2B
:10530000002913D0904824304178002973D00278C6
:10531000051DFF20362A21D010DC4721312A3ED03E
:1053200007DC012A2CD0302A14D12CE0FFF7ACFF87
:1053300066E0322A40D0332A0CD14CE0502A4ED0BD
:1053400004DC372A19D0472A04D105E0512A49D074
:10535000FF2A4AD0022149E0002147E03621297086
:105360006870A870E8702871FCF7A6FA6871FCF7FD
:10537000A3FA000AA87107200FE000F0AEFA3FE0A0
:1053800000F084FA3CE02279297030216970AA701B
:10539000EF7028716871A871207AE87130E0227985
:1053A000297031216970AA70EF7028716871E089E5
:1053B0008100A9718009F0E7227929703221697092
:1053C000AA70EF702871F0796871307A7F30A87117
:1053D000707AE2E706E0207900F043FA10E0FFF788
:1053E0003DFF0DE0FFF71FFF0AE0FF212079FFF7E7
:1053F0000BFF05E0FFE7208AC00709D000F0B1F9F4
:105400006069012812D0022814D003282ED115E09B
:10541000E079000607D5208AC00701D100F0EDF938
:1054200000F0C1F9ECE7FFF7BFFEE9E7207AFCF7EF
:1054300067FB1BE0E089FCF749FA17E0308864213C
:10544000323000F0B1FC0546708814210A3000F0BB
:10545000ABFC727AB17901920091281808220421DC
:10546000C0B2F379B256715EFCF79FFAA079401C86
:10547000A071A079052800D9A7716079002800D013
:105480006761E078F02803D9032000F055F901E0C6
:10549000401CE070FCF79CFB618988420ED0FCF751
:1054A00097FB81B20523618111221846D3DF0028C2
:1054B00004D0FF2127A21031FAF7E6FEFEBD08B5A1
:1054C00029490120CCDF002804D0FF2121A21C3172
:1054D000FAF7DAFE69460520E7DF694608788007B3
:1054E000800F08700BD10023012210210520C2DF9C
:1054F000002804D0FF2117A22731FAF7C5FE0523A3
:10550000112264211846D3DF002804D0FF2111A204
:105510002F31FAF7B9FE39210520CDDF002804D05C
:10552000FF210CA23331FAF7AFFE01214903052018
:10553000D1DF002804D0FF2106A23731FAF7A4FEFC
:1055400000220421052011E0AC250020334000009A
:10555000702F00206C69625F616E745C616E745FB5
:1055600046452E630000000010630200CFDF0028D4
:1055700004D0FF21FD4A3B31FAF786FE0520C4DF47
:10558000002804D0FF21F94A3F31FAF77DFE0320BD
:1055900000F0D2F808BD08B5012000F0CDF8F448BD
:1055A0003321C1715021817100218180F14A028033
:1055B000C82242807F22027264224272EE48FF2299
:1055C00002704170ED4A01216846FEF784FE002812
:1055D00004D0FF21E54A6031FAF756FEFF21002290
:1055E00001310098FEF7BEFE002804D0FF21DF4AFB
:1055F0006431FAF749FEFCF712FB002800D02020A6
:10560000DD49403024398870FFF759FF4E20FFF7FD
:105610008FFD012008BD10B5C1784F2901D04E295A
:1056200017D1D54C4179243C322927D00BDC0129F4
:105630002DD022461279D04B521CD2B230290AD03A
:10564000312906D10EE033291BD037292DD0462928
:105650001AD0062010BD2271197001216161007BF2
:10566000207224E02271197002216161C17A007BED
:105670000002801C08188008E08118E000F0CCF9D6
:1056800015E000F0A0F912E000F05AF90FE080797F
:1056900081060CD100060AD5FBF7AEFFE079802128
:1056A0000843E0717820607201E000F02BF90020DF
:1056B000E07010BDF8B5B04F00254178243FAE4CE6
:1056C0002E4603290BD0052904D0062907D08029AE
:1056D00024D11AE0E078002801D0E6706670607886
:1056E00000280CD0A078002801D04F2000E04E20E8
:1056F000FFF71EFD05466078401E607003E04E20F7
:10570000FFF716FD0546BE7108E07979002905D13D
:10571000FFF781FF0546042000F00EF82846F8BD8B
:1057200095492439C8617047934824388069704787
:1057300091492439487170478F4924398A699042C8
:1057400005D08861CA69002A01D08869104770476E
:1057500010B5FCF7AEF80A2801D2202010BD302089
:1057600010BD70B5FCF7A5F8FA214843092100F0F7
:105770001BFB814C05461020241D207019206070F1
:10578000204628384078A070FCF70EFAE0702571AA
:10579000280A6071FF20A071FFF7DAFF00090001FD
:1057A000001DE07170BD10B5FCF726FA032801D189
:1057B000FBF722FF704C243C607A00280BD0FCF7EA
:1057C0001BFA002807D0FCF717FA012803D0607AEB
:1057D000401E607210BDFCF70FFA012803D1A078BB
:1057E000DF210840A07000216348E17101220270AE
:1057F000052242708170C17010BD70B55E4C0220F0
:10580000241D207020462838C0796070FCF751F8BC
:105810000546FCF7E0F9854201D9802000E04020F0
:10582000A070FCF7D2F9FF2803D0FCF7CEF91930AD
:105830004000E070FCF7CFF97D21C90048432421E6
:1058400000F0B2FA2071FCF7C6F97D21C900484387
:10585000242100F0A9FA000A6071FF20A071E07114
:1058600070BD45494722091D0A7033224A7088706D
:105870000020C870FF2008713D4A414893881818DD
:105880004871001288719079C871704710B53A4C10
:105890000120241D2070FCF7AFF901281BD0002047
:1058A00060700020A070FCF790F9FF2803D0FCF78F
:1058B0008CF919304000E070FCF705F82071FCF716
:1058C00002F8000A6071FBF7FEFFA071FBF7FBFF17
:1058D000000AE07110BD8020E2E727483721001D53
:1058E000234A017011884170090A8170FF23C37037
:1058F000528811010F310171110941718371002129
:10590000C17170471C49BF2324398A781A408A70B4
:1059100003224A61C2798179120251188AB2194B65
:1059200013499A4200D1134A0A80427A807A1209B6
:1059300000018018144A904200D1C8204880704766
:1059400010B58179FF293DD1C179FF293AD10A4AA1
:10595000243A1179FF2901D0491C1171017B064CB1
:1059600001291FD1C17A472911D00FE054550200F7
:10597000702F00204C1D0000D0250020AF520200E7
:10598000204E0000FFFF0000FF0F00002170807A12
:105990004106490E6170C009A0706078002809D0E6
:1059A000607860700020FFF782FCA078002803D0A8
:1059B0004F2002E00520F4E74E20FFF7B9FB6078A6
:1059C000401E607010BD10B522490A790B46521C6A
:1059D0000A71427924331A7003224A61837AC27AA7
:1059E0001D49FF2B01D1FF2A10D01C4C12021219A5
:1059F0009A1812B21A4B8A809A4202DCE3109A4239
:105A000000DA8B80007BFF2803D003E000228A802D
:105A1000F8E75020887110BD0E490A790B46521CD8
:105A20000A71427924331A7003224A610A49827A40
:105A3000CA71C27AFF2A08D0D2B27F3A0A72027BB8
:105A4000FF2A04D0D0B2487270477F22F6E7642064
:105A5000F9E70000AC250020702F0020E0B1FFFF27
:105A6000C40900000FB41CB5074B06AA7B44694665
:105A70000090059800F0A5FA0020694600F0B4FAFD
:105A80001CBC08BC04B018477905000070B504467A
:105A900085690068C10601D5302600E02026C007D0
:105AA00007D070BD62683046A1689047206A401CEC
:105AB00020626D1EF6D570BD70B50446856900780C
:105AC000C00707D170BD6268A16820209047206A96
:105AD000401C20626D1EF6D570BD0000F7B5002594
